:400000000010002011000000950400009504000010B500F061FAC04670B51E4C23688022D20213432360182000F00AFB22681A4B13402360194A1A4B1A603022194B1A606A
:40004000103A194B1A60103A184B1A601132184B1A60103A174B1A6082221206164B1A6000252560154B164A1360164A1360164A164B1A60164B174A1360174A1360174900
:40008000092000F083FA092000F06AFA144B1D6070BDC04600010B40FFFFFBFF0600008004010B40080202400C0202401C020240200202402402024008010B400E0000805A
:4000C00000000240400002401000008080000240BF5D00800400024044000240510800000C020B4010B572B600240FE028486200131959000B00411889881A5AC3185888D5
:400100000004104300F0A4F90134E4B2012CEDD91F4801000C31243000F080F9E022D2021C4B1A601C4A1D4B1A6099221C4B1A6099231B041B4A1360A821C9051A4A116001
:400140001A4A13601A490B783C22934314221343DBB20B70174A117816230B43DBB213701023154A1360154A13600322144B1A60144A154B1A600223144A13603121144AC6
:400180001160144A1360FFF747FF00F077F910BD3463000000000140EEEE00000C0001401000014000500F4008500F4030500F4001700F4000700F4000000440180004400E
:4001C00000030440A40D00000803044000040440080404401804044010B5064C2378002B07D1054B002B02D0044800E000BF0123237010BD8001002000000000F462000058
:40020000084B10B5002B03D00749084800E000BF07480368002B00D110BD064B002BFBD09847F9E70000000084010020F4620000C00000200000000070B50B4B1C68E3071C
:400240000FD50A4B1D68EB0704D5002000F074FF074B1880074B1D60074A116801230B431360064B1C6070BD1C021A403C021A40DC01002030021A409C01002010021A404E
:4002800000B58FB002000B00044901A803F0D4FB01A800F015FE0FB000BDC046F862000010B582B001AC207000F014FC002301222100402000F080FC00280DD100F0F2FBB3
:4002C0008307FBD500F0EEFB830507D400F0E4FB012805D0FF2004E0FF2002E0FF2000E0002002B010BDC04600B583B0FFF7D8FF00F0F0FB0023032201A9402000F0D8FC4D
:4003000000280BD100F0CEFBC307FBD501AB187800025B7818180323984300E0002003B000BDC04610B5E320FFF7DEFF01F0E6FE02F0F0FC054A064B01F01EFF054A064B12
:4003400002F094F902F03AFD10BDC046D7A3703D0AF7653FCDCCCCCCCC6C474010B5E520FFF7C2FF01F0CAFE02F0D4FC0022054B01F002FF0022044B02F078F902F01EFD05
:4003800010BDC04600405F3F0000184010B5FFF7E5FF01F07DFA0400FFF7C4FF01F078FA2100FFF76DFF10BD00B5C1B062B600F0B7FA00F015FD00F0DDFD00F0A3FE00F091
:4003C000B1FE124800F020FFFFF7E0FFFA20400000F014F90E4B1B68DB07F5D50C4A136801218B4313600B4B198809B2002000F0B9FE02F08FFC02000B00074901A803F00E
:400400001BFB01A800F05CFDDEE7C046390200009C010020DC01002018630000F0B50025002711E0BB00C658F3B2FF22964308E06A008A181478A419527822700135013B14
:40044000DBB2002BF4D10137032FEBD9F0BDC04610B50A00002102F071FE10BD064B1B68002803D080221206134301E05B005B08014A13607047C04680031A4010B58022C3
:400480001203034B1A600120FFF7E8FF10BDC04600031A4010B502F025FE03680C2B00D1FEE7FEE710B50300094A1068C318094A9A1A802189008A4202DC054A136005E02A
:4004C00002F010FE0C2303600120404210BDC046C40000201002002070B50F4E0F4D13E029686B68AC68002202E001C901C30432A242FAD1E868002202E0002102C30432AE
:400500008242FAD11035013E002EE9D102F0F0FDFFF74AFFFEE7C046010000006066000010B500230AE0032B03D89A000949505800E009489900094A885001332F2BF2D933
:40054000FFF7D0FD8022D205116801230B43136010BDC0460000000095040000000000201F2318401E3B8340014A13607047C04600E100E01F2318401E3B8340014A1360EF
:400580007047C04680E100E001BE704770B504000D001F2802D90020FFF7F6FF1034A40080239B059C4664442068256070BDC04670B504000E00032902D90020FFF7E4FF38
:4005C0001F2C02D90020FFF7DFFF03252540ED00063500F033FEA408A400074B9C46644421680323AB4099430B003100A9401943216000F027FE70BD00E400E010B5040098
:4006000006E0084B586800F00FFE074B9C46644480231B029C42F4D8024B9868604300F003FE10BDC80000200080FFFF10B5034B1B7B584300F0F8FD10BDC046C800002086
:40064000F0B557464E46C0B483B0040000F0F6FD0190E71E2D2F74D83F4B1B78DBB29C4208D83E4B1B78DBB29A463D4B1B78DBB2994631E03B4B1B78DBB29C4208D83A4B66
:400680001B78DBB29A46394B1B78DBB2994623E0374B1B78DBB29C4208D8364B1B78DBB29A46354B1B78DBB2994615E0334B1B78DBB29C4208D8324B1B78DBB29A46314B0A
:4006C0001B78DBB2994607E02F4B1B78DBB29A462E4B1B78DBB299462D4BDE5D2F2E09D92A2C07D919222B4B1A60052000F09CFD192503E0274B1D683F231D40B54206D974
:40070000234BDA5D234B1A60052000F08DFD1F4B9C4664442378DBB21F4A13601F4B52461A601F4B4A461A600520FFF77FFFB5420AD2174BDA5D174B1A60052000F074FD3E
:4007400002E00020FFF720FF019800F07BFD03B00CBC91469A46F0BDC0F1FF0FC1F1FF0FC2F1FF0FC3F1FF0FC4F1FF0FC5F1FF0FC6F1FF0FC7F1FF0FC8F1FF0FC9F1FF0FDF
:40078000CAF1FF0FCBF1FF0FCCF1FF0FCDF1FF0F686300002CFF0B4028FF0B401CFF0B4020FF0B40034B1868C0231B02184000D00120704700010B4010B500F03FFD044A33
:4007C0001368C02109020B43136000F03BFD10BD00010B4010B500F031FD08490A68084B1A408024E40122430A600A6813408022120213430B6000F025FD10BD00010B407E
:40080000FF3FFFFF70B5050000F018FD0400FFF7C9FF002803D0FFF7DDFF012100E0002108482840084A1568084B2B40184310601368012901D1FFF7BFFF200000F002FD51
:4008400070BDC0460404040010020B40FBFBFBFF10B5244B1B685B0715D5234B1B685B070ED5224BD969042001401F4C22688A432260DA698243DA611B69002B00D09847BA
:400880000420FFF7BFFF174B1B685B0518D5164B1B685B0510D5154BD9698022D2001140114802688A430260D969114A0A40DA615B69002B00D098478020C000FFF7A2FFF5
:4008C000084B1B685B030CD5074B1B685B0304D5064B9B69002B00D098478020C002FFF791FF10BD10020B40DC000020A4010020FFFBFFFF10B50B20FFF732FE10BDC046F4
:4009000010B500F01DF810BD10B5044A1368802109060B431360FFF7EDFF10BD0000074010B5064B1B78002B04D1FFF7E9FF0122024B1A70FFF7E8FF10BDC046C401002015
:4009400010B51B4A11680C230B4313600024194B1C60194A194B1A60194B1A4A13601A4A14601A4A14601A4A13601A4B1C600B20FFF700FE03210B20FFF71AFE16490B20F6
:40098000FFF704FE154B1C60154B1C60154B1C60154B1C60154B1C60154B1C601022154B1A70154B1C80154B1C60154B1C6010BD70000740000007407708008060000740D6
:4009C0000701008000030740040307401003074000020740040207404D120000C80E0740880E0740480F0740080F0740C80F0740880F0740DE010020EC010020E801002081
:400A0000F001002010B5144A13685B005B081360002312490B6012490B601248046812492140016011490B6011490B601149124B19601249124B19601249134B19601349CB
:400A4000134B19601021134B19701368802109060B43136010BDC04600000740680007406C00074060000740FF5CFFFF880F0740C80F0740F3070000800F0740ED0F000057
:400A8000C00F0740FF0F0000400F074017030000000F0740DE010020014B18687047C046F001002010B50B20FFF764FD074B1C88A2B21400064B1B789B0602D504231A43EE
:400AC00094B20B20FFF74CFD200010BDEC010020DE01002010B50B20FFF74CFD044B1C88A4B200221A800B20FFF73AFD200010BDEC01002070B52B4B1B6820251D402A4C91
:400B000003E00120FFF792FD013C00F043FA002801D1002CF5D1002C43D0002000F042FA224A13680F218B431360214A13685B005B081360002D18D0002000F033FA0A2060
:400B4000FFF774FD012000F02DFA0A20FFF76EFD154C03E00120FFF769FD013C00F02EFA002803D1002CF5D100E00F4C002C08D0002000F017FA0A20FFF758FD01220D4BF7
:400B80001A600B4A1368802109060B43136007490B680F229343013A13430B60012000F001FA70BD64000740204E00000C0001400000074068000740F0B583B001900C00AA
:400BC00017001D00002917D02A4B1B78102B08D10B20FFF7CFFC284B1B68DB070ED508260FE0244B1B78602B0AD1244A138808218B431380002604E0042602E0002600E0BA
:400C00000426002E2FD128221A4B1A7000231C4A13601C4A13601C4B1F601C4B1C60EAB21B4B1A70019B5C00FF231C40134A138802218B4313804023164A13601649174A11
:400C400011601421FF31164A1160164A1360EB0704D5FFF74FFF144B1C6004E0124B1C600222124B1A600B20FFF77AFC300003B0F0BDC046DE01002064000740EC01002074
:400C8000F8010020F001002000020020E4010020F4010020800F074017030000000F0740080F0740880F07404002074068000740F0B583B001900C0017001D00002917D05B
:400CC0002F4B1B78102B08D10B20FFF753FC2D4B1B68DB070ED508260FE0294B1B78602B0AD1294A138808218B431380002604E0042602E0002600E00426002E39D12922B8
:400D00001F4B1A700022214B1A60214A1760214B1C60EBB220490B70019B5C00FF231C400120044318490B8883430B801B491C4B19601421FF311B4B19601368072B03D839
:400D40000422194B1A6008E0184A1368802149000B4313600822144B1A60EB0704D5FFF7C9FE134B1C6004E0114B1C600222114B1A600B20FFF7F4FB300003B0F0BDC0463E
:400D8000DE01002064000740EC010020E8010020FC010020E0010020F401002017030000000F0740080F0740C80F074060000740400207406800074010B500F06FF810BD8C
:400DC00010B500F01DF810BD10B5044A1368802109060B431360FFF7EFFF10BD0000064010B5064B1B78002B04D1FFF7E9FF0122024B1A70FFF7E8FF10BDC046CC01002048
:400E0000134A144B1A600023134A13601349144A1160144A14490A6007201449086014490B6006381349086013490A60134A1360134A1360134A1360134A1360134A1360AD
:400E4000134A1360134A13601268134B1A8070470B000002000006404000064001000A004800064007000080000306400403064010030640440006400002064004020640A3
:400E8000880E0640C80E0640480F0640080F0640C80F0640880F0640CE01002005490B68F0229343603A13430B60034B1A88034B1A60704710000140CE010020880F0640C7
:400EC00070B50500002402E000F05EFB0134285D0028F9D170BDC0460004000C014B18607047C046480105400004000C014B18607047C0465401054070B504000D0000F02A
:400F00009DF9AC40024B1C6000F09CF970BDC0460800054010B500F091F9064A116802230B43136000F08EF918210220FFF7E4FF10BDC04600000540014B18607047C0462F
:400F40007801054010B580229204074B1A600C22064B1A600220FFF7EFFF0548FFF7C4FF0020FFF7B9FF10BD4001054064010540FFFF000010B5064B1B78002B04D1FFF77D
:400F8000E1FF0122024B1A70FFF7C4FF10BDC046D0010020024B1868400801231840704704030440044A1368DBB201218B430840184310607047C04600030440024B1B681A
:400FC000012018407047C0460403044010B503210E20FFF7EDFA29490E20FFF7D7FA0122274B1A60274B1B68002B01DA264900E02649274A13680B431360264A264B1A6045
:40100000264A274B1A608022D205264B1A60264B264A1360264A1360264A1368802149020B4313600023244A1360244A13600133234A13600221234A116023490868234ADE
:40104000024013430B60002315E09800204A82188021C9001160194C216801229A401204120C0A432260590000241A4A8C521A491A4A81500133002BE7D010BDAD110000F8
:4010800020001A4080031A40700210537002005300001A40CD00008004001A400000FF0F18001A401C001A400400040010001A4014001A4000031A4028021A4038021A40EF
:4010C00018021A40000F1A4030001A40FFFFFFDF80001A40040200203E1800000802002010B5074B1B68002B08DB054A1368802109060B4313600A20FFF798FA10BDC046C5
:4011000000001A4010B5064B1B78002B04D1FFF75DFF0122024B1A70FFF7E2FF10BDC046D1010020034A1368802149020B4313607047C04604001A4010B5041E02D000205B
:40114000FFF722FA002C07D1A400054B9C46644420680004000C00E0002000B210BDC04680011A4070B504000D00002802D00020FFF70AFA62000A4BD05A00B2281A00B212
:4011800000F074FF074900F0B5FC051CA400064BE05800F06BFF011C281C00F091FB70BD040200200000204108020020014B1A681A60704710021A40014B98677047C04605
:4011C0000000002010B5040000F038F8044A1168044B0B40A4051C43146000F033F810BD0CE400E0FFFF3FFF8022D201014B1A607047C04600E100E08022D201014B1A6021
:401200007047C04680E100E010B50400FFF7F4FF2000FFF7D1FF0320FFF7D4FFFFF7E4FF10BDC046000000000230800804D0C0460138FDD1C046C046C0467047EFF31080AA
:4012400072B6704780F310887047C04610B5AD4B1B68002B00D09847AB4B1B68DB0702D50022AA4B1A60AA4B1B789B0628D5A94B1B68DB0507D5A84A1188C0239B000B433A
:401280001380012300E00023A24A1268D20706D5A14A118890239B000B4313800123002B0FD09B4A1278D20701D5012200E002229949088802430A800021954A117000E092
:4012C0000023934A1278920600D414E1914A1268D20611D51022914B1A608D4B1B78DB0701D5012300E002238B4A11880B4313801022874B1A7004E1854A1278120720D5F3
:40130000844A126892070AD50222844B1A60824A118888239B000B431380012311E07C4A1278D20703D52521794A117009E02421774A11707A4A1268002A02D01439794A9A
:401340001160734A1278520700D4ABE0704A1278D20749D5744A1268120727D5734A1268734909680F240C40724909686418141B082C09D8002C16D16F4A11686F4B0B405C
:401380001360012308340EE008240CE0694A11686B48006841186B480068C0B20870116801311160013C002CF0D119E05E4A1268520715D55F4A11686148006841186148D6
:4013C0000068C0B208701168013111601168574A1268914203D204215B4A116000E001235A495B4A11605DE04A4A1268920726D502224A4B1A6057490B680D321A4009681C
:4014000080231B020B4000D001239B18524A1168CB1A13601268514B1A603F4A118884239B000B4313804E4B1A68802149020A431A6019684B4A0A401A60012332E04A4A46
:401440001268D20612D424E0434A1168344A1268914211D2404A11684448006841180978C9B243480160116801311160394A12680F210A40082AE7D1374A1168284A1268E1
:40148000914202D14021274A11603A493A4A116008E0354A1268520604D52F4B1A682F4B1A600123002B2CD0234A1168234B0B4013600023314A13601A4A1360304B1B7876
:4014C0009B070ED5124B1B78DB0701D5092300E00A23114A11880B43138060220C4B1A700FE0284B1B689B0601D5182200E01022154B1A6005E0064B1B78DB0601D4FFF757
:4015000081FA10BDC80100208C0E0740880E0740DE0100200C0F0740EC010020000F074000020020880F0740CC0F0740FC01002008030740E801002060000740FFFEFFFFBC
:40154000E00100204003074068000740ED0F0000C00F074008020740F8010020F001002004020740FFFFFEFF8C0F0740E401002040020740F3070000800F0740C80F0740FE
:40158000F401002064000740044B1B680F221340082BF9D0024B18607047C0460802064040020640002243088B4274D303098B425FD3030A8B4244D3030B8B4228D3030C5D
:4015C0008B420DD3FF22090212BA030C8B4202D31212090265D0030B8B4219D300E0090AC30B8B4201D3CB03C01A5241830B8B4201D38B03C01A5241430B8B4201D34B0366
:40160000C01A5241030B8B4201D30B03C01A5241C30A8B4201D3CB02C01A5241830A8B4201D38B02C01A5241430A8B4201D34B02C01A5241030A8B4201D30B02C01A524173
:40164000CDD2C3098B4201D3CB01C01A524183098B4201D38B01C01A524143098B4201D34B01C01A524103098B4201D30B01C01A5241C3088B4201D3CB00C01A5241830804
:401680008B4201D38B00C01A524143088B4201D34B00C01A5241411A00D20146524110467047FFE701B5002000F0F0F802BDC0460029F7D076E7704703460B437FD4002270
:4016C00043088B4274D303098B425FD3030A8B4244D3030B8B4228D3030C8B420DD3FF22090212BA030C8B4202D31212090265D0030B8B4219D300E0090AC30B8B4201D3C7
:40170000CB03C01A5241830B8B4201D38B03C01A5241430B8B4201D34B03C01A5241030B8B4201D30B03C01A5241C30A8B4201D3CB02C01A5241830A8B4201D38B02C01A33
:401740005241430A8B4201D34B02C01A5241030A8B4201D30B02C01A5241CDD2C3098B4201D3CB01C01A524183098B4201D38B01C01A524143098B4201D34B01C01A5241F5
:4017800003098B4201D30B01C01A5241C3088B4201D3CB00C01A524183088B4201D38B00C01A524143088B4201D34B00C01A5241411A00D201465241104670475DE0CA0F6D
:4017C00000D04942031000D34042534000229C4603098B422DD3030A8B4212D3FC22890112BA030A8B420CD3890192118B4208D3890192118B4204D389013AD0921100E00D
:401800008909C3098B4201D3CB01C01A524183098B4201D38B01C01A524143098B4201D34B01C01A524103098B4201D30B01C01A5241C3088B4201D3CB00C01A524183084F
:401840008B4201D38B00C01A5241D9D243088B4201D34B00C01A5241411A00D20146634652415B10104601D34042002B00D54942704763465B1000D3404201B5002000F048
:4018800005F802BD0029F8D016E770477047C0469E2110B5C905041C01F04CFB002803D1201C00F0C1FB10BD9E21201CC90500F035FA00F0B9FB80231B069C466044F2E700
:4018C000F0B5564644465F464D46F0B444024600C70F83B08846650A360EBA463DD0FF2E22D00023EC00802599469B46ED0425437F3E43465C025800DB0F640A000E9846F2
:4019000036D0FF2830D080230021E400DB041C437F38301A0190484642460843724E800030587A4013008746002D44D108239946063B9B46DDE70122FF2000241A406402E7
:40194000C305640AD2071C431443200003B03CBC90469946A246AB46F0BD002D20D104239946033B9B46C4E7002C17D1022102E0002C0AD10121321A01924A4643460A4327
:401980005A48920082587B409746200001F0DCFA431F76309C4040420021BAE70321B8E7280001F0D1FA431F9D4000237630464299469B469DE70C239946093B9B4698E745
:4019C00080240022E403FF20B9E70024C2468B465A465346022AAED0032A7DD0012A31D1012200201A400024A9E70122101A1B2856DD1A4000200024A1E78023DB031D42DA
:401A00004BD18023DB032B435C02640A3A00FF2095E76D016001854230D2019A0024013A01921B220127290064006D00002901DBA84201D82D1A3C43013A002AF3D16A1E37
:401A400095412C4301987F300028CEDD620704D00F222240042A00D00434220103D5244A019814408030FE2800DD64E70122A401640AC0B21A4062E72C00A9E72D1A1A2222
:401A80000124CFE76B02BCD500248023DB031C436402640A4246FF2051E71C42B3D1F4E721002022C140101A8440621E94410C43620704D00F222240042A00D0043462017A
:401AC00004D5012201201A40002438E70122A401640A1A40002032E78023DB031C436402640A5246FF202AE798630000D8630000FFFFFFF7F0B557464E4645464300E0B485
:401B000046028846760A1F0EC40F002F47D0FF2F25D0002380259A469946F600ED042E437F3F434642465D02D20F5B006D0A1B0E904640D0FF2B39D080220020ED00D2041F
:401B400015437F3BFB1842465746591C62408C4607430F2F5CD86F49BF00C9598F46002E45D108239A46063B9946DAE7424602282DD0032800D1C3E0012800D0A2E00025EA
:401B800000260240D4B27602ED05760A2E43E407264330001CBC90469946A246F0BD002E1AD104239A46033B9946BAE72A00511E8A41901CC6E70120002DC3D0280001F0A1
:401BC000C3F9431F76309D4043420020BAE70124FF2514400026D6E7300001F0B5F9431F9E400023763047429A46994699E70C239A46093B994694E780260024F603FF254A
:401C0000C1E735004846B2E7350022004846AEE72904090C0800370C3604360C2C0C7943704367437443060C64183619B14203D980214902884647440004000C31040918BE
:401C40008D01681E8541890E2943350CED19AD010D43290104D5012369081D4063460D4319007F31002925DD680704D00F202840042800D00435280103D5274980330D40E0
:401C80001900FE29A3DC0124AD016E0A1440CDB279E78020C003064207D0054205D128434602760A4446FF256DE706437602760AFF2568E70124611A1B2905DD1440002520
:401CC000002660E76346CBE72E002023CE40591A8D406B1E9D412E43730704D00F233340042B00D00436730104D5012401251440002648E70124B601760A1440002542E71A
:401D000080260124F6032E437602760A1440FF2539E7C04618640000FFFFFFF7F8B54A024E0043024400240EC50F9B09360EC90F9209FF2E00D183E001204140A01BA9428E
:401D40005CD0002800DC95E0002E1CD1002A00D081E05A0704D00F221A40042A00D004335A013BD50134FF2C00D191E001209B015B0AE4B205405B02E4055B0AED07234344
:401D80002B431800F8BDFF2CE3D08021C9040A431B2800DD90E016002021C640081A8240511E8A4132439B1A5A0115D59B019E09300001F0C9F80538864084426CDC041B80
:401DC000330020200134E340041BA640721E964100243343BDE70D005A07BCD1DF0801231D40FF2C33D1002F00D190E08022D20313003B435B025B0AFF24BCE700284FDD88
:401E0000002E2ED0FF2CA4D08025ED042A431B2800DD97E016002025C640281A8240501E824132439B185A01D5D50134FF2C6DD001227B481A405B08034013430D0088E725
:401E4000002A00D07AE777E7031EC5D100257B025B0AE4B28FE701380028A4D0FF2C97D177E7002A00D174E701380028DAD0FF2CCDD16EE7002821D1601CC0B2012858DD34
:401E800080279E1AFF0437402FD0D61A0D008FE701231D4000236EE7624B241A334058E7002851D1601CC6B2012E33DDFF282DD09B185B0804004CE7012274E7002C1AD0BF
:401EC000FF2E1FD08024E404404223431B2800DD96E01D002024C540201A8340581E83412B43D31A34000D005EE7002E00D05FE700250024ABE7002B44D0C0430028F0D0F5
:401F0000FF2EE3D11300FF240D0022E70D00FF24002330E7002C5DD1002B7DD0002A00D117E79B185A0100D456E73E4A040013400FE7002C1ED1002B2FD1002A65D0130093
:401F40000D0006E701226DE7002C1FD1002B59D0C04300280BD0FF2E4FD01B285EDC1D002024C540201A8340581E83412B439B18340058E7002B1CD1002A49D013000D0005
:401F8000FF24E6E6130034000D00E2E6FF2E34D08024E40440422343DFE7002A00D1D8E68027981AFF04074000D14DE7D31A0D00CFE6FF24002A00D1CBE68020DB08C00386
:401FC000034204D0D208024201D113000D00DB00FF24BEE6002B10D0FF24002A00D1B8E68020DB08C003034203D0D208024200D11300DB000D00FF24ABE61300FF24A8E68F
:4020000001236EE713003400A3E6002700251EE780270025FF03E9E613009AE60123A6E7FFFFFF7DFFFFFFFB4302590A4300C20F1B0E00207E2B0EDD9D2B0DDC80200004C5
:402040000143952B0BDC9620C31AD9400B005842002A00D118007047034BD018FBE7963B99400B00F3E7C046FFFFFF7F70B5002830D0C317C5185D40C40F280000F064FF42
:402080009E231B1A962B0DDC9622D21A95406A02520AD8B25202C005520AE40702432243100070BD992B19DC9922D21A9540124A2A40690704D00F210D40042D00D004327B
:4020C000510103D50C4B1A409F231B1A9201520AD8B2DFE7002400200022DBE705222E00121AB921D6402A00C91A8A40551EAA4135001543DBE7C046FFFFFFFB70B5041E6D
:4021000028D000F021FF9E231B1A962B0ADC9622D21A94406202520AD8B25202520AC005104370BD992B18DC9922D21A9440114A2240610704D00F210C40042C00D0043265
:40214000510103D50B4B1A409F231B1A9201520AD8B2E2E700200022DFE705222500121AB921D5402200C91A8A40541EA2412C001443DCE7FFFFFFFBF0B55F4656464D4602
:402180004446F0B40D0399464E002B0B87B00700924680469B46760DCC0F002E69D06D4B9E4235D05B468022DD001204430F13432B439B46C3009846674B00279C460023B3
:4021C000664401934A4615035000D20F53462D0B400D914600D176E05E4A90426CD080225B0F120413435C4AED0094461D4353460022DB00604449463618701C61400290DB
:4022000017430F2F00D9AFE05448BF00C759BF465B461F4300D088E000239B469846023308270193CEE74946022A6AD0032A00D109E2012A00D0BBE1114000220023002524
:402240009046CCB200212D030A0D12052D0B1543434A1B0515401D436D00E4076D0825434046290007B03CBC90469946A246AB46F0BD034352D05B46002B00D18AE15846BD
:4022800000F062FE03000B3B1C2B00DD7BE11D22D31A3A0001005D46DA4008398D4013008F402B439B46B8462E4B00279C46002360444642019385E752462A432CD10025AC
:4022C0000023022297E752462A4321D0002D00D154E1280000F038FE03000B3B1C2B00DD46E11D21CB1A51460200D9405346083A954093400D431B4A9446604440420022DF
:4023000079E7012400220C40124B0025904699E70025002301226EE703226CE700239B4698460133042701934CE703230C27019348E700238025984600242D03054B81E7C4
:402340005D464346019A6FE75D4643462100019A6AE7C046FF07000001FCFFFF58640000FFFF0F80F30300004246120C91461A0C9446424617044A461B041B0C5A43604688
:4023800090464A4642431000039262461C003F0C7A437C4342440192220C9246019A5244904506D98246802040028046C24450460390100C049048462404240C1204121988
:4023C00005922A0C2D042D0C68432C00824648467C4350438146200C8046574357444744BA4503D9802040028046C144380C3F04B84648442404240C01900498A044404428
:4024000004905846000C814658460404200C8246070048465F434C464343604660436446834650464443380C8446E4186444A34203D980235B029C46E34448463F04230C59
:402440003F0C2404E419574668436F4384464D46504655434243380C814662444A445B44944503D9802040028446654403983F04834604983F0C8446E344C3458041404230
:402480008246100484460198674484466744A344BC46A345A4419946D44464428742BF41D4458041E144A04699459B417F424042C8440743120CBA18A045A4415F423B00D3
:4024C00064422343D71843467D19DB0D6D021D435B465A02059B1A43531E9A415B46DB0D1A4343465B021343EA0107D501225C0813402343EA07029E13436D08574AB218D5
:40250000002A4BDD580709D00F201840042805D0181D98429B415B42ED180300E80104D54F4A15408022D200B2184E48824200DDE7E60124DB08680718436D0253058046A8
:402540002D0B5B0D0C407DE6802259461203114208D0154206D115432D0398462D0B4C46414B6FE65D4615432D032D0B3E4B69E603005546283B9D400023BCE6504600F0E8
:40258000E3FC2030A8E60300283B9F400023BB46984689E600F0D8FC203073E60124A61A382E07DD00220C4000230025904649E6029EA3E71F2E20DC20222C001800921BAB
:4025C000F040944093400443581E83411C43F540630709D00F232340042B05D023001C1D9C4292415242AD182B021FD5012400220C4001230025904624E61F202C004042E3
:40260000821AD440202E1CD04022961BB5402B43581E83410720234318400025002809D00F2200251A401C00042AD8D1230068076D022D0B0124DB08034398460C4000237E
:4026400000E60025E3E780220124120315432D0398462D0B0C40044BF4E5C046FF030000FFFFFFFEFE070000FF070000F0B557464E464546E0B40E001100F20F9246C500D7
:40268000420F180337037400400A4E0F7F0A3043CF4E17435A00640D520DDB0FC900B24200D1E5E001267340A61AB446534500D1AFE0002E00DC0DE1002A3AD103000B4375
:4026C00000D0E4E06B0709D00F232B40042B05D02B1DAB42AD416D427F191D003B0200D488E0BB4B01349C4200D110E13A00B94B51461A4001235007ED08520264050543DB
:40270000120B640D0B400021280012030D0D120B64052D0515436208AF4CDB072C401443640064081C4321001CBC90469946A246F0BDA74B9C42C5D080231B041843634691
:40274000382B00DDFDE01F2B00DD30E1624620239B1A02009A40664690460A009940F24046464B1E99413243114363460200DA40691A8D429B410D00BA1A5B42D71A3B02BA
:4027800035D57A02530A98464346002B00D1C4E0404600F0D9FB0300083B1F2B00DDC5E020222900D21A4746D1409F400A009D403A439C4200DDC0E01C1B631C1F2B00DD63
:4027C000E4E0202114002800C91AD8408C408D400443DA40681E854117002543002471E7424663461A4300D14CE2674645466B0700D069E7012351467807ED08FA080B4089
:40280000054373498C4238D012036405120B640D79E7002E00DC9AE0002A47D06C4A944200D14FE78022120410436246382A00DC08E10143481E81410022C9B24919D219CA
:40284000A942BF410D007F42BF183A0200D442E15F4A0134944200D14EE101205D4A69083A4028400843D507054357089A4629E706000E4300D017E714E72900114300D19A
:40288000F9E1802109030A431203120B3BE701235B429846C4446346002B72D1691A8D429B413F1A5B42FF1A0D0068E702000A4300D107E7012252429046C4446246002A24
:4028C00000D0E6E06918A942B6413F187642F7190D00BAE7002E00D080E0621C5205520D012A00DCF9E06A1A91464D45B6413A1A7642921B9046120200D499E04D1BA94279
:402900008941C71B49427A1A90469A463CE752460123002513400022F5E6280000F014FB20300300083B1F2B00DC39E72A002838824000259C4200DC3EE7264FE41A1740A5
:40294000C0E60143481E81410022C9B210E7002E00D0F1E0621C94465205520D012A00DCA0E01B4A944500D1C5E06918A94292413F185242D2194908D5070D4357086446FE
:40298000A0E6134B9C4200D0D9E69BE611001F3CE1400C00202B00D180E04021CB1A9A4015436A1E95410027254300241FE763460200203BDA406346202B71D0402366463D
:4029C0009B1B98400143481E814111430022CFE6FF070000FFFF7FFFFFFF0F80002C48D0CA4CA24200D1A2E07442A1468024240427434C46382C00DDDBE01F2C00DD44E164
:402A00004E462024A41B3E00A640A246B0464C462E00E640B4464646644626435446A5406C1EA54134002C434D46EF400D1B28E04A4643464D461A4300D0A5E6002300244F
:402A40000025DEE61F2A5ADC66462022921B060096409146B04662460E00D640424616434A4691404A1E9141020060463143C240E4E63C002C435AD0F443A146002C52D138
:402A80004D1BA9428941C71B49427F1A14009A4675E69E4A944200D0C7E613E600227FE700208FE7002C00D0C8E03B002B4300D10FE103000B4300D104E66918A9429B41F0
:402AC0003F185B42DF193B0200D41AE1904B0D001F406446F6E59A4689E63A002A43002C5CD1002A75D102000A4300D1CAE007000D009A46E6E564460022002581E66246CA
:402B00000600203AD6406246B046202A00D1B7E040226646921B904001434246481E8141114300228AE6794CA24200D061E707000D0014009A46C5E5002C41D13C002C430E
:402B400078D0F443A146002C20D0704CA24271D04C46382C00DDB2E01F2C00DDBCE02026341BA2463C005646B4404E46A0462C00F440A446444666463443A4465446A540A6
:402B800064466E1EB54125434C46E7406D188D4289413F184942CF19140056E6002A2FD102000A4300D184E007000D009A46574C88E53D436F1EBD41ECB200270D1B60E79F
:402BC000524CA24236D0744280263604A1463743BEE702000A4300D174E56A1A90464545B6413A1A7642921B9446120200D4F7E54D1BA9428941C71B49427F1A9A4661E5BD
:402C000002000A433AD0ED087C072C438025FA082D032A4208D0C7082F4205D145072C003A009A46C9080C43670FD200E5001743364C47E507000D00140043E53A002A4345
:402C400043D002000A4319D0ED087C072C438025FA082D032A4207D0C6082E4204D147073C003200C9080C43D700620FE50017439A46264C26E50022002544E5234C21E550
:402C8000002049E700230025BBE54C463E00203CE6404C46B446202C31D040244E46A61BB7403D436C1EA54164462C4300270D1BE7E6802200231203144C0025A1E53D4377
:402CC0006F1EBD410027EDB260E707000D000F4CF8E407000D00F5E44E463C00203EF440A0464C46202C0ED040244E46A41BA7403D436F1EBD4144460027254346E70027EA
:402D0000CFE70D0073E50027F2E7C046FF070000FFFF7FFF4200120E511C4302C9B270B55D0AC40F012915DDE02189008C466D071B0B6244002128000D0D2D052B431C4DDE
:402D400052052B40520813435B00E4075B082343190070BD002A15D1002D1FD0280000F0F3F80A281DDC0B232A001B1ADA4013000200153295400F4A1B03121A52051B0B3A
:402D8000520DD7E7002D06D080221B0B120313436D07094ACEE7084A0023CBE700220023C8E703000B3B9D402B000025E3E7C046FFFF0F8089030000FF0700004B0070B554
:402DC0005E0D0C03751C640A420F6D052243C90FC4006D0D012D2ADD3B4BF318FE2B1ADC002B42DD8001451EA841D2001043620F0243500704D00F201040042800D0043269
:402E00008020C004104021D00133FF2B03D09201520ADBB201E0FF2300225202520ADB0513435B00C9075B080B43180070BD002E07D01443EFD08020D20080040243FF239C
:402E4000D7E722430023002A03D00522D208FF2B03D05202520ADBB2DFE7002A32D08020C00302435202520AD7E71800173014DB8020000402431E20C01A1F280FDC250026
:402E8000124BF3189D406E1EB5419A402B0013432200C2401A430023ABE70023D5E702256D42EB1A1500DD40202809D0084BF3189A401443621E9441220000232A4398E798
:402EC0000022F6E70022A8E780FCFFFF82FCFFFFA2FCFFFF8446081C6146FFE71FB500F0BDF8002801D40021C8421FBD10B500F049F84042013010BD10B500F0AFF800289E
:402F000001DB002010BD012010BDC04610B500F0A5F8002801DD002010BD012010BDC04610B500F057F8002801DC002010BD012010BDC04610B500F04DF8002801DA002094
:402F400010BD012010BDC0461C2101231B04984201D3000C10391B0A984201D3000A08391B09984201D30009043902A2105C40187047C046040302020101010100000000A3
:402F800000000000430270B542004C005D0AC30F4802120E460A240EC90FFF2A0FD0FF2C11D00120A24200D070BDB542FCD18B420DD0002AF8D12800431E9841F4E7012047
:402FC000002DF1D1EBE70120002EEDD1E9E70020EAE7C0464302F0B542005D0AC30F4802440A4800120E000EC90FFF2A1FD0FF2822D0002A09D16E426E4100280FD1002C29
:403000000DD10020002D09D005E0002801D1002C01D08B4213D0584201231843F0BD002EF7D048424141012049420843F6E7002DDDD002204042F1E7002CDAD0F9E7824295
:40304000E9DC04DBA542E6D80020A542E6D25842434101205B421843E0E7C0464302F0B542004C005E0AC30F4802120E450A240EC90FFF2A17D0FF2C19D0002A0BD17042F3
:403080007041002C17D0002807D048424141012049420843F0BD002C13D08B4214D0584201231843F6E70220002EF3D1E3E70220002DEFD1E1E7002DE5D10020002EE9D048
:4030C000EDE7002DE9D1EAE7A242E8DC04DBAE42E5D80020AE42DDD25842434101205B421843D7E7014B18687047C046400100200E4B70B500251E000D4CE41AA410A542BF
:4031000004D0AB00F35898470135F8E703F096FA084B00251E00084CE41AA410A54204D0AB00F35898470135F8E770BD486600004866000048660000506600000300821883
:40314000934202D019700133FAE77047F0B58BB014001D1E129906DA802424061B191D0014002D2300E000230B702023149E03229E43462E07D03300453B59424B411099CF
:40318000013ACB18109309AB049308AB0393139B00920293109B220001932B0000F0FCFC0700472E02D1119BDB072DD5109BFB180793462E14D13B78302B0CD100220023B1
:4031C0002000290002F048F8002804D10123109A9B1A139A1360139B079A1B68D3180793002200232000290002F036F83022002802D0079B099307E0099B0799994203D943
:40320000591C09911A70F7E73800099B159ADB1B13600BB0F0BDF7B52B2307000C000270861C002901DA2D234C427B70092C1CDD6B46DD1D20000A21FEF724FB013D3031F6
:40324000297020000A21FEF737FA04000928F1DC013D30342C706B4607333000AB4209D92B78013533700136F5E73023E4183370B01C7470C01BFEBDF0B595B00C000A92C1
:403280000B931A9D099001F04DFA036818000D9300F0F4FB0023129323680E900C930C99277E2B680722C90501D59B1800E0073393431A0008322A601A685B68A264E36499
:4032C0000122E56CA66C6B005B080F935242C04B30000F9902F03EFF002819D10122BC4B524230000F9901F0C7FF002810D1002200233000290001F0B5FF002803D0230069
:403300002D2243331A70B34D472F0ED8B24D0CE032002B003000290002F01CFF002800D19AE1AE4D472F00D8AD4D03230C9A236101339A432260002642E0672F00D193E177
:40334000472F00D190E10C9A0021134312AA059211AA0392232223600691019308A9636852180292009332002B0004970998FFF7EDFE20233A0005009A43472A00D18EE14B
:403380001199652F00D996E1200001393A0050301191FFF740FF129A060083182361012A00DD85E12268D20700D581E1232308AA9B181B78002B03D023002D2243331A700D
:4033C0000B9B13AA009321000A9B099800F0A4F9431C02D1012040429BE12268530501D4236964E0652F00D8CCE0A06CE16C0022002301F031FF00282CD00123794A0A9986
:4034000009980B9DA847431CE4D0119B129A934208DB2368DB0705D4236800259B0700D50FE113E10B9D0E9B0D9A0A990998A8470025431CCED0129B013B9D42ECDA2200E3
:4034400001231A320A9909980B9EB047431CC1D00135F0E7119B002B2BDC0123614A0A9909980B9EB047431CB4D0119B002B05D1129B002B02D12368DB07CDD50B9E0E9BCE
:403480000D9A0A990998B0470026431CA2D0119B5B429E420ADA220001231A320A9909980B9FB847431C95D00136F0E7129B2A00ACE0A36D129E9E4200DD1E00002E05DCC8
:4034C00000230C93F343DB170F9315E033002A000A9909980B9FB847431CF1D17AE7220001231A320A9909980B9FB847431C00D170E70C9B01330C930F9BA26D0C9933402E
:40350000D31A9942EBDBAE18119B129A93420DDB2368DB070AD4129B119AED18AD1B9B1A9D4200DD1D00002D09DC11E00E9B0D9A0A9909980B9FB847431CECD14AE72B006C
:4035400032000A9909980B9EB047431C00D141E7EF43FB1700260C930AE0220001231A320A9909980B9FB847431C00D132E70136119A129B0C999B1A2A000A409B1A9E4230
:40358000EBDB49E7129B012B02DC01231A4245D001232A000A9909980B9FB847431C00D118E70E9B0D9A0A9909980B9FB847431C00D10FE7A06CE16C0022002301F04CFE23
:4035C000002801D000251AE0129B6A1C013B26E0FFFFEF7F9E6400009A640000A6640000A2640000AA640000220001231A320A9909980B9FB847431C00D1EBE60135129B51
:40360000013B9D42F0DB2200330050320A9909980B9DA847431C00D0FEE6DBE62A000A9909980B9DA847431CEDD1D3E62200012319320A9909980B9EB047431C00D1C9E6EF
:403640000135E368139A9B1A9D42EFDB139BE06898425EDA18005CE080236268DB00511C00D06AE6073202E0002A02D10122626069E60C9908A80B430021069112A9059195
:4036800011A90391232109182360019300922B000497029132000998FFF758FD0500119BDA1C02DB626893421CDD023FFFB267E6013323617AE6662F15D16368002909DD6F
:4036C0002161002B02D12268D2071ED50133591821611AE0002B03D101222168114213D09A1C11E06727119B129A934206DB22682361D20709D50133236106E00121002BFF
:4037000001DC4918C91A8A182261119B0026A3654CE615B0F0BDC046F7B5170001938A680B6900900C00934200DA130022003B6043321278002A01D001333B6023689B06F2
:4037400002D53B6802333B60062523681D401ED0230043331B785A1E9341226892061CD53020E1184331087021005A1C45310978A2184332023311700FE02200012319324B
:4037800001990098089EB047431C0ED00135E3683A689B1A9D42F0DBDAE72200019943320098089DA847431C02D10120404220E006232068E1683A6803400025042B03D181
:4037C0008D1AEB43DB171D40A3682269934201DD9B1AED180027BD420AD0220001231A3201990098089EB047431CDED00137F2E70020FEBDF0B58BB006920A0043320793B7
:40380000059004920A7E0C00109B6E2A00D1ABE011D8632A22D009D8002A00D1B5E0582A00D0C5E045310A70814A4FE0642A1DD0692A1BD0BCE0732A00D1AAE009D86F2A69
:4038400029D0702A00D0B3E0202209680A43226037E0752A1FD0782A33D0A9E00E001A684236111D196013683370A4E021681A68080606D4490604D5111D19600023D55E94
:4038800002E0111D19601568002D3BDA2D23049A6D42137036E021681A68080606D4490604D51568111D1960ADB202E0111D196015685F4B227E039308276F2A1DD00A2720
:4038C0001BE022007821453211705A4A19680392081D226818600D68100602D4500600D5ADB2D30702D520231A4322601027002D03D1202322689A4322602300002243335C
:403900001A7002E00A274A4B03936368A360002B09DB0422216891432160002D05D1049E002B11D07BE0002D79D0049E28003900FDF7BEFE039B013E5B5C28003370390011
:40394000FDF730FE051EF1D1082F09D12368DB0706D563682269934202DC3023013E3370049B9B1B23612BE009681A68080607D4490605D5111D19601368A28A1A8004E0F4
:40398000111D1960136862691A600023049E236116E01A68111D1960166800216268300000F0CEFE002801D0801B6060636803E0260042363270012323610023049A1370B5
:4039C000079B09AA00932100069B0598FFF7A4FE431C02D10120404227E02369320006990598079DA847431CF4D0236800259B070FD4099BE068984217DA180015E0220041
:403A00000123193206990598079EB047431CE1D00135E368099A9B1A9D42F0DBE9E72600039B42361B7833708EE70BB0F0BDC046AC640000BD6400000EB410B59DB002A9D7
:403A4000029008610B48822488604861012040421FABC881084804CBA400006801938C8101F088FA0023029A13701DB010BC08BC03B01847FFFFFF7F400100200023C25CFD
:403A80000133002AFBD1581E7047F0B503690C6989B00700059100269C4279DC0B00013C1433A50003935B1904930300143302935D19049B28681B68591C0193FDF772FDB2
:403AC0000190B04233D0039B02989C460696634604CB9C46019B91B25943120C5A4389190B0CD3180793069A1E0C038889B29B1802685B1A110C6A46928B8A1A1914521875
:403B000011149BB21204134308C0049B06916345DDD22B68002B0AD1029B043DAB4201D33C6104E02B68002BFAD1013CF4E70599380001F029F8002829DB0020019B02998D
:403B40000133039A019340CA0B881818B3B2C31A0868360C000C801B1D14451928149BB22D042B4308C1049B9342ECD2029AA300D3181A68002A0AD1029A043B9A4201D38A
:403B80003C6104E01A68002AFAD1013CF4E7019E300009B0F0BD0000F0B516001F00446A9DB00490259D06960797002C08D1102000F0BCFD049B5862446084600460C46014
:403BC000049B5B6A196800290BD05A68012393404A608B60049800F0FFFD0022049B5B6A1A60079B002B05DA01232B607B005B08079301E000232B60079CC84B2200199320
:403C00001A409A4219D1C64B249A1360069AC54B002A02D1240300D1C34B269A1800002A01D100F07DFDD978DA1C002900D00532269918000A6000F073FD069E079F0022AD
:403C400000233000390001F007FB051E0ED00123249A1360B54B269A1800002A01D100F05FFDB34A26990A6000F05AFD1AAB01931BAB009332003B00049801F00BF86300D0
:403C800005905B0D09D03A03AA4C120B1443AA4A300021009E1817951AE01A9B1B9A9E18A64BF318202B08DDA54A0698B218D0404022D31A9C40204303E020220698D31AF5
:403CC000984002F0DFFA01239E4C013E0919179300229D4BFEF7CAFC9C4A9D4BFEF74CFA9C4A9D4B01F0E6FA040030000D0002F087FA9A4A9A4BFEF73FFA02000B002000C3
:403D0000290001F0D7FA04000D0002F043FA0022039000232000290001F0A4FA00280DD0039802F06DFA02000B002000290001F093FA43424341039AD31A039301231693E5
:403D4000039B162B11D88749DB00C91808684968069A079B01F09AFA002805D0039B013B03930023169300E016901A9B9E1B00230B93013E0C9604D50C9B5B420B9300235A
:403D80000C93039B002B08DB039A0C9B944663440C9300231192089307E00B9B039A9B1A0B935342089300231193229B0125092B25D8052B02DD0025043B2293229B981ED0
:403DC000032824D801F02EFA060E0204012302E0012308E000231093239B002B20DD1F000A9321E00023239A1093039B9F187B1C0A930123FA18002A16DD130014E0012760
:403E000000237F42229310950A97123305E0012701237F4210930A9711330022239203E001273B000A972397049A546A00226260043211001431994204D86168520001319C
:403E40006160F6E76168049800F08EFC049B20605B6A1B680D930A9B0E2B00D981E1002D00D17EE1069B079C14931594039B002B31DD0F223B491340DB00CB185C681B68D0
:403E80000E930F94039B02241D11EB060AD514981599354B15401A6A5B6A01F037FD069007910134304E002D0ED001231D4208D00E980F99E41832687368FEF75DF90E9070
:403EC0000F916D100836EEE70E9A0F9B0698079901F01CFD4CE0039B02245D42002D49D0149815990F231F4A2B40DB00D3181A685B68FEF741F90023069007911A4E2D1192
:403F0000002D33D00122154205D0A41832687368FEF732F901236D100836F1E70000F07F0F270000D7640000CE640000AA640000AB6400000000F03F01FCFFFF320400006B
:403F400012040000000010FE0000F83F61436F63A787D23FB3C8608B288AC63FFB799F501344D33FE8640000C0650000002B01D006900791169B002B1DD0069D079E00227A
:403F8000C74B2800310001F06DF9002813D00A9B002B10D0002F00DCDFE0039B3100013B0E930022BF4B2800FEF7E6F80134069007913E0002E0039B0A9E0E93200002F06B
:403FC0001FF9069A079BFEF7D7F80022B64B01F071F9B64A12901391129C139D9446139B634418931D00002E1CD1069807990022AF4BFEF73BFB2200189B0690079101F0F6
:4040000045F9002800D054E2AA481399844661440B0006980799220001F024F9002800D03DE29AE0109A731EA349DB00002A49D0CB181A685B680020A04901F067FC2B0008
:404040002200FEF713FB129013910D9D0698079902F0A0F8040002F0D3F802000B0006980799FEF703FB01356B1E30341C70129A139B0690079101F0F5F8002800D02EE346
:40408000069A079B00208649FEF7F0FA129A139B01F0E8F8002800D0C7E00D9BEB1AB3425BDA1298139900227E4BFEF765F8002212901391069807997A4BFEF75DF8069071
:4040C0000791C3E7C9182200086849682B00FEF753F80D9C12901391A5190698079902F059F8060002F08CF802000B0006980799FEF7BCFA303626700134069007910022CE
:40410000A54222D16D4B1298139901F0D3F802000B000698079901F0B9F8002800D084E0129A139B00206549FEF7A0FA02000B000698079901F096F800280ED06B1E1A78F0
:40414000302A00D0CBE21D00F8E706980799554BFEF712F806900791BFE7149B159C069307941B9B002B00DA81E0039A0E2A00DD7DE0D300504AD3185C681B680893099425
:40418000239B002B15DA0A9B002B12DC00D088E1089809990022464BFDF7EEFF069A079B01F07EF80A9B08931E00002800D07BE182E10D9D069E079F089A099B30003900F9
:4041C00001F0A4FB01F0E6FF040002F019F8089A099BFDF7D1FF02000B0030003900FEF745FA220001356B1E30321A700D9B0A9AEB1A9A422ED102000B0001F05BF806004E
:404200000F0002000B000898099901F02BF800280FD10898099932003B0001F01DF8002800D15EE2E30704D45BE20E9B039300E01D006B1E1A78392A08D10D9A9A42F7D139
:40424000039A0D990132039230220A701A7801321A7046E20022134BFDF78EFF0022002306000F0000F0F8FF0028A5D039E2109A002A44D0229A012A0BDC179A002A02D093
:404280000F4A9B1802E036231A9A9B1A089D0B9C29E00A9B5D1E089BAB4213DB5D1B18E00000F03F0000244000001C400000C0FC000014400000C07CE86400000000E03F45
:4042C00033040000089B0895EA1A0025119B9B1811930A9B002B04DA0B9B0A9A9C1A002301E00B9C0A9B0B9A0121D2180B920C9A0498D3180C9300F00FFB060002E0089D7C
:404300000B9C109E002C0ED00C9B002B0BDD0C9A2300944200DD13000B9AE41AD21A0B920C9AD31A0C93089B002B20DD109B002B17D0002D11D031002A00049800F07EFB81
:40434000059A01000600049800F0EFFA05990E90049800F041FA0E9B0593089B5A1B06D000E0089A0599049800F068FB05900121049800F0D1FA119B0890002B00D1C0E1F2
:404380001A000100049800F059FB229B0890012B17DC0025069BAB420ED1079B1B03AB420AD1199B079A134206D00B9B013501330B930C9B01330C93119B0120002B0DD0F7
:4043C00000E00025089B089A1B690E9303339B00D318586800F056FA2023181A0C9BC0181F23184009D001331B1A042B02DD1C23181A03E0042B08D018001C300B9B241813
:404400001B180B930C9B1B180C930B9B002B05DD1A000599049800F065FB05900C9B002B05DD1A000899049800F05CFB0890169B002B1DD00899059800F0A6FB002817DAAB
:40444000039B0A22013B039305990023049800F0DCF9109B0590002B00D159E1310000230A22049800F0D1F90600002F37DC33E00A9B0A9F002B2ADC229B022B27DD002F3B
:4044800012D108993B000522049800F0BEF908900100059800F078FB00280DDC04E0089602E000231E000893239B0D9DDB4303930AE00E9B089603930D9B0D9A5D1C3123EA
:4044C0001370039B013303930A960026F3E0109B002B04D10D9DB5E0229B022BCFDC002C05DD31002200049800F0FCFA06000A96002D12D07168049800F036F93100040058
:4045000033690C319A1C92000C3000F024F901222100049800F0E6FA0A900D9B7D1E0B935B190E9308990598FFF7AFFA310010900400059800F028FB0A9A05000899049889
:4045400000F03DFB01230C93C36830340700002B04D10100059800F017FB0C903900049800F03AF90C9B229A134308D1069A0133134204D1392C2AD0002D1CDC1DE0002D48
:4045800006DB229B1D431BD10123069A134217D10C9B002B11DD05990122049800F0A2FA0899059000F0F0FA002802DC05D1E30703D5392C0BD0109C31340B9B5D1C0FE05A
:4045C0000B9B5F1C0C9B002B0CDD392C05D10B9B0B9A5D1C3923137057E03D000B9B01341C7068E00B9B0E9A3D001C7093423CD000230A220599049800F007F90A9B059033
:404600009E4208D1310000230A22049800F0FDF806000A900DE0310000230A22049800F0F4F8002306000A220A99049800F0EDF80A900B9776E700230A220599049800F0C0
:40464000E4F8059008990598FFF71FFA0D9B3030287001350400EB1ABB42ECDB3D1E00DC01250A9600260D9B5D1905990122049800F038FA0899059000F086FA002804DC6B
:4046800013D1E30701D410E01D006B1E1A78392A08D10D9A9A42F7D1039B013303933123137008E001321A7005E06B1E1A78302A01D11D00F9E70899049800F08DF80A9B44
:4046C000002B0ED0002E05D09E4203D03100049800F082F80A99049800F07EF801E00E9B03930498059900F077F800232B70039B249A01331360269B0D98002B10D01D60B7
:404700000EE0229B012B00DC43E6119D012065E6002F00DDDEE6229B022B00DCDAE6AEE61DB0F0BD004870474401002010B5034B0100186800F05CFB10BDC04640010020AC
:40474000C9B28218904204D003788B4202D00130F8E700207047002310B59A4203D0CC5CC4540133F9E710BD70B5466A04000D00002E07D11020FFF7D9FF6062466086608D
:404780000660C660666AF368002B09D0636AAA00DB689B18186800280ED002681A6017E021220421200000F0C9FA636AF060DB68002BEBD100200EE001210E00AE40721D33
:4047C0009200200000F0BAFA0028F3D04560866000230361C36070BD70B5456A06000C00002D07D11020FFF7A1FF7062456085600560C560002C07D0726A6368D2689B0000
:40480000D3181A6822601C6070BDF7B5070008000C000D691E00002101921430019A0388013153439B190668360C56431A0C9446B4446246160C120494469BB2634408C034
:404840008D42EBDC002E1BD0A3689D4212DB63683800591CFFF788FF2100236901909A1C92000C310C30FFF776FF21003800FFF7B3FF019C2B1D9B00E31801355E6025615D
:404880002000FEBD00220300010C914201D103041032190E01D108321B02190F01D104321B01990F01D102329B001000002B03DB20205B0000D5501C70470722036810B513
:4048C00001001A400CD001240020234223D10222134203D0E34020000B601CE09B0818E098B2002801D110221B0CD8B2002801D108321B0A180701D104321B09980701D116
:4049000002329B08D80704D45B082020002B02D0013210000B6010BD10B50C000121FFF723FF01234461036110BDF0B50B691400126989B00D00934201DA25000C002F6962
:404940002669AA68BB1969680193934200DD0131FFF70AFF0200BB1914329B00D3189C46002113000290634501D202C3FBE71435BF00EB191434B6000593A319039507937E
:40498000079B9C4251D2208800281ED015000026039F08CF069504936B461B8A434319002B88CB1804999B19090C41432E68360C89191E0C89190E0C9BB209040B4308C566
:4049C000059BBB42E5D8069B5E6023681D0C1FD0002110001368039F04913E8801686E43090C7118049E9BB289190E043343036008CF86881B0C6B43090C9B195B18190C63
:404A00000491059906900430B942E6D806994B6004340432B4E704235B429C4463461B68002B05D1019B013B0193019B002BF2DC029B019A18001A6109B0F0BD0323F7B598
:404A4000134005000E001400002B08D02349013B9A00525800233100FFF7D7FE0600A310019338D06C6A002C07D11020FFF75EFE6862446084600460C4606F6ABC68002CFA
:404A800010D117492800FFF747FF0023B8600400036007E0019B5B1001931CD02068002810D004000122019B1342F3D0310022002800FFF73AFF070031002800FFF78CFE4C
:404AC0003E00E7E7220021002800FFF72EFF002320600360E5E73000FEBDC046B065000071020000F0B50C0017002369551185B0EB180193013300934968A3680290009A9C
:404B0000934202DA01315B00F9E70298FFF72CFE00230200060019001432AB4203DA980011500133F9E7EB43DB171D402300AD0055192269143392009A1894461F221740F9
:404B400014D00132D21B0392002219682800B9400A4304C504CB0399CA409C45F5D84260002A07D0019B0233009303E004CB04C59C45FBD8009B0298013B33612100FFF74D
:404B80002BFE300005B0F0BD03690A6910B59B1A0400181E12D1930014341431E218C918043A043913680868834204D083429B410120184302E09442F2D3002010BDF0B59E
:404BC0000C0085B00700110020001500FFF7DCFF061E07D101003800FFF7C6FD01234661036155E000230193984204DA23002C001D000123019361683800FFF7B5FD019B2C
:404C000026692F00C3601434B300E318020002932B69002514379B00FB180393143208CC69469C4608CF0432009363468B808B885D19009B9BB2EB1A65460193009B2D0C36
:404C4000190C019B691A1D14131F9C466B4649199B880D1409040B4361460B60039BBB42DDD8029913008C420BD202CC8BB25B191D14090C49190D149BB209040B4308C284
:404C8000EFE7043B1A68002A01D1013EF9E7066105B0F0BDF7B51D000121089F1400FFF763FD2B036D0006001B0B6D0D02D08022520313430193002C18D068460094FFF73D
:404CC000FCFD009C002809D0019B20211A00091A8A40C34022437261019300E07461019CB461631E9C410134346107E001A8FFF7E4FD0124019B346173612030002D06D0F8
:404D00000B4BED1835232D183D60181A0BE0094BC018094B3860E3189B00F3185869FFF7B1FD6401201A099B18603000FEBDC046CDFBFFFFCEFBFFFFFFFFFF3F4A4370B57C
:404D40001100140000F054F8051E03D022000021FEF7F4F9280070BD70B50500002944D00C1F2368002B00DAE418280000F027FA1E4A13681100002B02D16360146031E0D1
:404D8000A3420DD92268A018834203D118685B688218226063600C6024E0A24203D813005A68002AF9D11E689819A0420BD12168711858181960824214D11068526841180F
:404DC00019605A600EE0A04202D90C232B6009E021686018824203D1106852684118216062605C60280000F0EBF970BDD8010020032370B5CD1C9D43083506000C2D01D28A
:404E00000C2501E0002D01DBA94202D90C23336048E0300000F0D3F9234B1C681A002100002913D00B685B1B0DD40B2B02D90B60CC181EE08C4202D1636813601AE04B68CE
:404E400063600C0016E00C004968E9E7174C2368002B03D1300000F08BF920602900300000F086F9431C18D00323C41C9C43A0420DD12560300000F0A3F9200007220B3056
:404E8000231D9043C31A0ED05A42E2500BE0211A300000F06DF9431CEBD10C233000336000F08EF9002070BDD8010020D4010020F0B58E6885B007000C00039201939E42FF
:404EC00043D890238A89DB001A423ED003250969236801985B1A029363695D43EB0F5D19029B6D1001331B18AB4200D91D00530510D529003800FFF77BFF061E14D0029AD2
:404F00002169FFF728FCA289194B134080221343A38112E02A00380000F053F9061E0CD121693800FFF718FF0C23402201203B60A38940421343A38117E0029B2661F618D1
:404F400026606561019EED1AA560019BB34200D21E0032000399206800F01CF90020A3689B1BA36023689E19266005B0F0BDC0467FFBFFFFF0B59FB0029005938B890F0091
:404F800016001B0610D50B69002B0DD14021FFF72FFF38603861002804D10C23029A01381360D8E040237B61002306AD6B6120336B761033AB7634002378002B03D1A31B71
:404FC000049312D003E0252BF9D00134F4E7A31B320039000298FFF76BFF431C00D1B4E06A69049B944663446B612378002B00D1ABE00122002352426A6002A95432521825
:4050000001342B60EB60AB601370AB65534E217805223000FFF794FB002807D00123801B83402A68013413432B60EFE72B68DA0604D55322202102A8121811701A0704D561
:4050400053222B2102A81218117022782A2A03D0099B00200A210EE0059A111D12680591002A01DB099204E05242EA60022213432B6001340BE02278303A092A04D84B4376
:4050800001349B180120F6E7002800D0099323782E2B1ED163782A2B0AD1059B02341A1D1B680592002B01DA01235B42079310E000230A201A0001346B6021783039092975
:4050C00004D84243013452180123F6E7002B00D00792234E217803223000FFF731FB002806D04023801B83402A68013413432B60217806221B48661C2976FFF721FB0028B4
:4051000012D0194B002B06D10722059B073393430833059314E005AB00933A00134B29000298FEF7A9F807E005AB00933A000F4B29000298FEF75EFB0390039B013304D04B
:405140006B69039A9B186B6135E7BB890B985B0601D5012040421FB0F0BDC046E8650000EE650000F265000079320000B14E0000002370B5064C050008002360FBF792F998
:40518000431C03D12368002B00D02B6070BDC0460C02002010B5884202D98B18984201D3002305E09B1A013A08D3995C8154FAE7934203D0CC5CC4540133F9E710BD704791
:4051C0007047F8B506000C001500002904D11100FFF70EFE040018E0002A03D1FFF7BCFD2C0012E000F013F885420ED929003000FFF7FEFD071E07D021002A00FFF7ABFA77
:4052000021003000FFF7A8FD3C002000F8BD0B1F1A68101F002A04DA891804390B68D0180438704702B4714649084900095C49008E4402BC7047C0468446101C62468C46F0
:40524000191C634600E0C0461FB500F019FF002801D40021C8421FBD10B500F06DFE4042013010BD10B500F00BFF002801DB002010BD012010BDC04610B500F001FF002869
:4052800001DD002010BD012010BDC04610B500F093FE002801DC002010BD012010BDC04610B500F089FE002801DA002010BD012010BDC046F8B556465F464D464446F0B434
:4052C0000F00FD0FAA4609037C002E005F00450F490A7F0D2943C5001803BC46400A570F640DDB0F3843D2009A4500D1AAE06646A61B002E00DCFFE06346002B39D1030044
:40530000134300D0D9E06B0709D00F232B40042B05D02B1DAB42AD416D4249191D000B0200D482E0CA4B01349C4200D1FEE00A005646C84BED081A405007640552020543D3
:40534000120B640D002112030B0D1B056405120B1A436308C04CF60714401C43640064083443280021003CBC90469946A246AB46F8BDB74B9C42C6D080231B041843382E63
:4053800000DDEBE01F2E00DD1EE120239B1B9C4603006746BB40984613004746F3403B436746BA40571EBA4113430200F240EB1A9D42B6411D008A1A7642911B0B0231D5B3
:4053C0004A02560A002E00D1B4E03000FDF7BCFD0300083B1F2B00DDB5E020222900D21AD1409E400A009D4032439C4200DDB1E01C1B631C1F2B00DDD5E020211400280092
:40540000C91A8C40D8408D400443DA40681E854111002543002476E74146314300D134E2310045466B0700D06FE756464807ED08C9080543864B9C4235D00A036405120BBB
:40544000640D7FE76346E31A9B46002B00DC8BE06746002F3CD07E4FBC4200D153E780273F0438435B46382B00DCF7E00243501E82410020D2B253194218AB4289411D00CE
:40548000494289180B02CDD5714B01349C4200D13DE101206F4A6B080A4028401843D507054351082FE72B000B4300D1CBE180231B030B431A03120B44E7013E002E6DD151
:4054C000AE1AB5429B41091A5B42C91A350075E70700174300D116E701235B429C46E3445B46002B00D0E0E0AA18AA429B4109185B4259181500C5E7002E75D1661C76059D
:40550000760D012E00DCF3E0AE1AB0464545BF410E1A7F42F61B370200D48FE0551BAA42B641411A76428E1B9A464BE756460022002507E72800FDF707FD20300300083BA4
:405540001F2B00DC49E72A002838824000259C4200DC4DE73F49E41A1140D4E60243501E8241D3B2002222E7002B00D0F3E0631C9C465B055B0D012B00DC9FE0344B9C45E1
:4055800000D1C3E0AA180918AA42804140424118CD075208154349086446B4E62C4B9C4200D0ECE6AFE611001F3CE1400C00202B00D17FE04021CB1A9A4015436A1E95417B
:4055C0000021254300242DE733000700203BDF403B00202E70D04027BE1BB0400243501E824113430022E2E6002C4FD0184CA44500D1ABE08024240476422143382E00DD68
:40560000DFE01F2E00DD43E12027BC1BA1460C004F46BC40A0462C004746F4403C434F46BD406F1EBD41F1402C43151BAA429241411A5242891A64469A46BFE641464546EA
:40564000314300D0BEE6002600240025F2E6C046FF070000FFFF7FFFFFFF0F801F2B59DC2027FF1ABC46070063469F405B46B9461700DF40B8464F4643461F4363469A409F
:40568000531E9A415B463A43D840F4E60C002C435CD0F643002E55D1551BAA42A441411A6442091B9A46644688E6964FBC4200D0D8E628E6002280E700208FE70B002B43E5
:4056C000002C00D0C2E0002B00D101E10300134300D118E6AB18AB42B6410918764271180A0200D409E1884A1D00114064460AE6002C5BD10E002E4300D08AE001001143F3
:4057000000D1C2E0010015009A46FCE56446002100258FE620235B429C46DC4463460700DF405B46BC46202B00D1ACE040235F46DB1B98400243501E8241634613431A0059
:40574000002098E66F4CA44500D057E70100150064469A46D7E5002C39D10C002C436ED0DB43002B1AD0674CA44568D0382B00DDA4E01F2B00DDAEE020240F00E41AA740D6
:40578000B9462F00DF40B846A3464F46444627435C46A5406C1EA541D9403D43AD1895429B4109185B42591864466BE60C002C4315D1010011437BD0010015009A46514C66
:4057C000A1E50D43691E8D410021ECB22DE74D4CA44534D0802424045B422143C6E7040014434ED0ED084C072C438025C9082D03294208D0C6082E4205D1D2084107114308
:405800000C009A463100620FC900E50011433D4C79E50600164300D175E5AE1AB0464545BF410E1A7F42F61B370200D4F4E5551BAA42B641411A7642891B9A4663E501000C
:40584000150064465FE5002200257BE5002B3BD00300134315D0ED084B072B438025C9082D03294207D0C4082C4204D141070B002100D2081343C9005A0F1143DD00214CEA
:4058800041E5204C3FE5002054E700260025D1E534000F00203CE7403C00202E2BD04027BE1BB1400D43691E8D4100212C43BCE6802100260903134C0025BBE50D43691EB5
:4058C0008D410021EDB269E7010015000D4C1AE50100150017E51C000F00203CE7403C00202B0CD04027FB1A99400D43691E8D410021254352E70021D4E71D0092E50021EC
:40590000F3E7C046FF070000FFFF7FFFF0B556464D4644465F46F0B41D000E034C00CB0F87B0070092468146360B640D98466AD06D4B9C4235D08022430F12041343F60072
:405940001E43C3009946694B00279C460023644402932B0368001B0BED0F51469B46400D009500D178E0604B98426CD05B46DA004B0F802109040B4313439B465346D90091
:405980005A4B9C46002360444246201A6A40924601901F430F2F00D9B0E05548BF00C0598746374300D088E0002399460233082700260293CDE74346B34649460093029BB1
:4059C000009A9246022B00D0BFE1002153460122002689461A40444B002136030C0D2405360B2643434C1B0526401E437600D207760816434846310007B03CBC90469946D8
:405A0000A246AB46F0BD330003434FD0002E00D1BCE13000FDF798FA03000B3B1C2B00DDADE11D220100D31A08393A008F408E40DA40B9461643304B00279C4600236044F9
:405A40004442029385E753465A4613432CD1002300219B46023397E70B4320D05B46002B00D19EE15846FDF76FFA03000B3B1C2B00DD8FE102005946083A91408B461D2146
:405A8000CB1A5146D9400B0059460B4351469B469140194B9C4660444042002374E7002300219B4601336FE703236DE70023994601330427002602934BE703230C270293C1
:405AC00047E70122D51A382D00DCB0E153461A4000210023002689467EE700238026994600223603004B77E7FF07000001FCFFFFFC650000FFFF0F80F30300005E4500D9F6
:405B000072E100D16DE1019B4D46013B01930023340002935B461E020B0E1E430B020393330C994633041B0C494620000093FBF739FD009B37004343060049462000984659
:405B4000FBF7B6FD2C0C09040C43A04509D9E419731EA74200D95CE1A04500D859E1023EE4194346E41A49462000FBF71BFD0300009A80465343494620009B46FBF798FD14
:405B80002A040904120C0A4393450DD94346D219013B974200D93AE1934500D837E102235B429C46D219E0445B46D21A4346360433439B460399180C0B0C1D000593090449
:405BC0005B46090C0C001B041B0C4443049159436B4368431B190D0CEB189C4203D980246402A44660441C0C09041B04090C20185D18824200D2DEE000D1D7E0161A029B2B
:405C00009C465D1BAC459B415B42F61AB74200D106E149463000FBF7C5FC009B04004343494630009846FBF743FD2E0C09040E43B04509D9F619631EB74200D9F3E0B045E0
:405C400000D8F0E0023CF6194346F31A494618000293FBF7A7FC009B06004343494602989846FBF725FD2D0409042D0C0D43A84509D9ED19731EAF4200D9D6E0A84500D814
:405C8000D3E0023EED192404210043463143049E059A3000ED1A0B040C0C1B0C58436643534354439A19030C9B189E4203D980225202944664441A0C00041B04000C141943
:405CC0001B18A54250D34DD001231943964A019B94466344002B00DCF3E64A0709D00F220A40042A05D00A1D8A42894149428B4411005A46D20108D55A468C4B1A40934623
:405D00008022D2009446019B6344894A934200DD5BE65A46C908500708435602514601225B058146360B5B0D0A4055E680231B031E4211D05A461A420ED15E461E43360377
:405D4000360B2A0089467B4B46E6032B00D1E1E0012BBBD11A40BBE61E433603360B4246744B39E6002BB1D07D194A1EAF4252D91100A542A8D1039A9A42A5D1A6E703008D
:405D80003E00283B9E400023994654E6FDF7DCF8203041E603005246283B9A400021934677E65046FDF7D0F820305EE6029B0026AB4200D323E7039E0299B446614488469E
:405DC000B045B6415B467642F619B218013B0291974213D290424FD800D18EE0161A9B460DE7894500D28EE674084B46F60735005B081D434B46DB0702938BE69742EDD195
:405E00000399029CA142E5D93E1A9B46F7E69846CAE61E00A5E6AC423ED874D0110053E70121494252E71C000EE71E002BE71F2D3CDC20230A0058465B1B9840EA409940E0
:405E40000243481E81415E461143EE404B0709D00F230B40042B05D00B00191D99429B415B42F61833023CD55346012200211A40002601238946AFE502235B429C46039CD3
:405E8000E344A446029B63449846A045B6417642F6190293B218B1E603988A1E41008142B6417642F619AD19039161E71F225242D31A5A46DA401300202D29D0402258469A
:405EC000551BA8400143481E814107200B4318400026002809D00F2200261A401900042ABBD10B0070077602360BDB0803439946012253461A4000236EE502998D42BBD89A
:405F00009B4600267BE603989842C5D3110032E70020D7E780265B4636031E433603360B009A8946034B57E5FF030000FFFFFFFEFE070000FF070000F0B55F4656464D4615
:405F40004446F0B41F035C00DB0F9A46194B0E034D00C90F8046360B6D0D8B4691463F0B640D9D4219D0134B9C421BD00123A54206D018003CBC90469946A246AB46F0BD12
:405F8000BE42F6D1C845F4D1D34510D0002DF0D1304303005A1E9341EBE7310001230143E7D1E0E73A430123002AE2D1DEE70023DFE7C046FF070000F0B55F46444656460E
:405FC0004D46F0B41F033C0B2C4F0E034D00A3465C008446360B6D0DC90F9046640DDB0FBD422BD0254FBC422ED0002D0ED130430700814678427841002C17D15F463A43F5
:4060000014D14B460020002B0AD006E0002C02D15846024301D099421AD00123484218433CBC90469946A246AB46F0BD0028F2D058425841012240421043F1E737000743BD
:40604000D0D002204042EBE75F461743CDD0F8E7A542E2DC05DB5E45DFD808D000205E45DED248424841012340421843D8E7C445D3D80020C445F4D3D2E7C046FF07000029
:40608000F0B55F464D4644465646F0B41C03240BA4462F4C0F034D005E00C90F80463F0B6D0D8B469146760DDB0FA54220D0284CA64222D0002D12D1384344424441002E69
:4060C00020D0002C0DD05C42634101245B421C4320003CBC90469946A246AB46F0BD002E17D05B4519D05B465C4201231C43EFE7390002240143EBD1D9E76146022411437B
:40610000E6D1D7E761460A43DBD100240028DFD0E9E761460A43E4D1E5E7B54203DD01225C421443D4E7B542CDDB6745DBD809D000246745CCD259464C426141012449429C
:406140000C43C5E7C845CED80024C845F3D3BFE7FF07000070B50E4E0C031D0349005B00240B490D2D0B5B0DB14204D0084900208B4208D070BD04430120002CFAD104499F
:4061800000208B42F6D115432800451EA841F1E7FF0700000B0330B5134D1A0B4B005B0DC90F0024AB4211DD104CA34210DC8024640322430E4CE41A1F2C0CDD0D48C31A24
:4061C000DA4013005C42002900D11C00200030BD094BCC18FAE7E040084CA44663449A4013000343EEE7C046FE0300001D0400003304000013040000FFFFFF7FEDFBFFFFB3
:4062000070B5002830D0C317C4185C40C50F2000FCF79AFE174B184A1B1AD21A1F2A18DD164AD21A9440002224035B05240B5B0D0021100024030A0D1205240B1443104A57
:406240001B0514401C436400ED0764082C43210070BD210091400A000B21081AC4405B052403240B5B0DE3E70025002300240022DEE7C0461E0400003304000013040000CB
:40628000FFFF0F8070B5051E28D0FCF75DFE154B154A1B1AD21A1F2A16DD2C00134A0025D21A94405A052403240B520D002124030B0D240B1B0523430D4C120523401343E7
:4062C0005B002800590870BD0B212C00081AC440954024035A05240B520DE7E700220024E4E7C0461E0400003304000013040000FFFF0F800000000054656D706572617402
:406300007572653A2025642C2048756D69646974793A2025640A0000414443206D6561737572656420766F6C746167653A20256620560A0000300F40000400400F400004DD
:4063400036013E4058045F011F8087806302D6408701A701E610000004320F4002330F4002400F4003410F40030405060708090A0B0C0E0F101112131415161718191B1CCC
:406380001D1E1F2021222325262728292A2B2E2F3031323334350000121A000036190000F4190000CC190000F4190000C0190000F4190000CC190000361900003619000076
:4063C000C0190000CC190000781A0000781A0000781A0000FA1900003619000036190000E0190000CA190000E0190000C0190000E0190000CA190000361900003619000050
:40640000C0190000CA190000781A0000781A0000781A0000841A0000101C00006E1B00006E1B00006C1B0000021C0000021C0000F81B00006C1B0000021C0000F81B000080
:40644000021C00006C1B0000081C0000081C0000081C0000921C000068230000282200002822000026220000402300004023000032230000262200004023000032230000DB
:406480004023000026220000482300004823000048230000482500004300494E4600696E66004E414E006E616E0030003031323334353637383941424344454600303132A7
:4064C0003334353637383961626364656600496E66696E697479004E614E00504F534958002E000000000000000000000000F03F0000000000002440000000000000594099
:406500000000000000408F40000000000088C34000000000006AF8400000000080842E4100000000D01263410000000084D797410000000065CDCD41000000205FA0024250
:40654000000000E876483742000000A2941A6D42000040E59C30A2420000901EC4BCD64200003426F56B0C430080E03779C3414300A0D8855734764300C84E676DC1AB43A8
:40658000003D9160E458E143408CB5781DAF154450EFE2D6E41A4B4492D54D06CFF08044F64AE1C7022DB544B49DD9794378EA4405000000190000007D0000000000000037
:4065C0000080E03779C34143176E05B5B5B89346F5F93FE9034F384D321D30F94877825A3CBF737FDD4F1575232D302B2000686C4C0065666745464700000000FC5A0000D7
:40660000CA590000D05A0000C0590000D05A0000DA5A0000D05A0000C0590000CA590000CA590000DA5A0000C0590000B6590000B6590000B65900002C5D0000F8B5C04657
:40664000F8BC08BC9E4670470102000021050000F8B5C046F8BC08BC9E467047D901000070660000C0000020C0000000900000000000000010020020010000000000E02EF7
:40668000C05D00001800000000366E0104040400000000000000000000000000000000000000000000000000000000000000000098640000000000000000000000000000F8
:4066C000000000000000000000000000000000000000000000000000000000000000000000000000000000000000000000000000E0000020E1640000ED650000ED650000B1
:40670000ED650000ED650000ED650000ED650000ED650000ED650000ED650000FFFFFFFFFFFFFFFFFFFFFFFFFFFF0000000000000000000000000000000000000000000029
:406740000000000000000000000000000000000000000000000000000000000000000000000000000000000000000000000000000000000000000000000000000000000019
:4067800000000000000000000000000000000000000000000000000000000000000000000000000000000000000000000000000000000000000000000000000000000000D9
:4067C0000000000000000000000000000000000000000000000000000000000000000000000000000000000000000000000000000000000000000000000000000000000099
:406800000000000000000000000000000000000000000000000000000000000000000000000000000000000000000000000000000000000000000000000000000000000058
:0200000490303A
:02000000A27DDF
:0200000490402A
:200000000000000000000000000000000000000000000000000000000000000000000000E0
:0200000490501A
:0C000000000204C81193110104E9B410BF
:0200000490600A
:0100000001FE
:00000001FF