:400000000010002011000000F5030000F503000010B500F00FFAC04670B51B4C23688022D20213432360182000F0B8FA2268174B13402360164A174B1A602022164B1A6070
:40004000103A164B1A600132154B1A601F32154B1A6080221206144B1A6000252560134A134B1A60134A144B1A60144B144A1360144A13601449092000F036FA092000F0BB
:400080001DFA124B1D6070BD00010B40FFFFFBFF0600008004010B40080202400C020240200202402402024008010B400E000080000002401000008040000240BF5D0080CE
:4000C0008000024004000240AD0700000C020B4010B572B600240FE01E486200131959000B00411889881A5AC31858880004104300F07AF90134E4B2012CEDD9164A174BC0
:400100001A609922164B1A6099231B04154A1360154A1360154A117806230B43DBB2137080221202124B1A6080221201114B1A600322114B1A60114A114B1A600223114AFD
:4001400013603121104A1160104A1360FFF764FF10BDC046BC350000EEEE00000C0001401000014010500F4030500F4000700F40080104400C01044000030440A40D0000B8
:400180000803044000040440080404401804044010B5064C2378002B07D1054B002B02D0044800E000BF0123237010BD48010020000000008C350000084B10B5002B03D047
:4001C0000749084800E000BF07480368002B00D110BD064B002BFBD09847F9E7000000004C0100208C350000C00000200000000000B58FB002000B00044901A802F098FDAB
:4002000001A800F00BFE0FB000BDC0469035000010B582B001AC207000F00AFC002301222100402000F076FC00280DD100F0E8FB8307FBD500F0E4FB830507D400F0DAFB58
:40024000012805D0FF2004E0FF2002E0FF2000E0002002B010BDC04600B583B0FFF7D8FF00F0E6FB0023032201A9402000F0CEFC00280BD100F0C4FBC307FBD501AB1878BD
:4002800000025B7818180323984300E0002003B000BDC04610B5E320FFF7DEFF01F00AFE02F014FC054A064B01F042FE054A064B02F0B8F802F05EFC10BDC046D7A3703DD3
:4002C0000AF7653FCDCCCCCCCC6C474010B5E520FFF7C2FF01F0EEFD02F0F8FB0022054B01F026FE0022044B02F09CF802F042FC10BDC04600405F3F0000184010B5FFF7B5
:40030000E5FF01F039F90400FFF7C4FF01F034F92100FFF76DFF10BD00B58FB00200044901A802F005FD01A800F078FD0FB000BDB035000010B500F08FFD0400002000F0E7
:4003400083FD00F077FD200001F0B4FD02F0BEFB154A164B01F0ECFD02F00CFC041C002101F0DCF8002805D1211CFE20800501F01BF9041C0E49201C01F0E0FA0D4901F0EA
:4003800013F9041C0C4901F0CFF800280AD00021201C01F0E7F8002804D0201C01F068FDFFF7BAFF10BDC046FCA9F1D24D62503F00007042000040400000A04210B562B62E
:4003C00000F05CFA00F0BAFC00F094FD00F022FE044800F0C3FDFFF791FFFA20400000F0BBF8F8E73503000010B50A00002102F097FC10BD10B502F067FC03680C2B00D11B
:40040000FEE7FEE710B50300084A1068C318084A9A1A802A02DC054A136005E002F054FC0C2303600120404210BDC046C4000020C801002070B50F4E0F4D13E029686B6804
:40044000AC68002202E001C901C30432A242FAD1E868002202E0002102C304328242FAD11035013E002EE9D102F034FCFFF7A6FFFEE7C046010000005437000010B500236A
:400480000AE0032B03D89A000949505800E009489900094A885001332F2BF2D9FFF718FE8022D205116801230B43136010BDC04600000000F5030000000000201F231840FF
:4004C0001E3B8340014A13607047C04600E100E01F2318401E3B8340014A13607047C04680E100E001BE704770B504000D001F2802D90020FFF7F6FF1034A40080239B052E
:400500009C4664442068256070BDC04670B504000E00032902D90020FFF7E4FF1F2C02D90020FFF7DFFF03252540ED00063500F0A9FDA408A400074B9C466444216803237A
:40054000AB4099430B003100A9401943216000F09DFD70BD00E400E010B5040006E0084B586800F085FD074B9C46644480231B029C42F4D8024B9868604300F079FD10BD9A
:40058000C80000200080FFFF10B5034B1B7B584300F06EFD10BDC046C8000020F0B557464E46C0B483B0040000F06CFD0190E71E2D2F74D83F4B1B78DBB29C4208D83E4B72
:4005C0001B78DBB29A463D4B1B78DBB2994631E03B4B1B78DBB29C4208D83A4B1B78DBB29A46394B1B78DBB2994623E0374B1B78DBB29C4208D8364B1B78DBB29A46354B93
:400600001B78DBB2994615E0334B1B78DBB29C4208D8324B1B78DBB29A46314B1B78DBB2994607E02F4B1B78DBB29A462E4B1B78DBB299462D4BDE5D2F2E09D92A2C07D971
:4006400019222B4B1A60052000F012FD192503E0274B1D683F231D40B54206D9234BDA5D234B1A60052000F003FD1F4B9C4664442378DBB21F4A13601F4B52461A601F4BFE
:400680004A461A600520FFF77FFFB5420AD2174BDA5D174B1A60052000F0EAFC02E00020FFF720FF019800F0F1FC03B00CBC91469A46F0BDC0F1FF0FC1F1FF0FC2F1FF0FA8
:4006C000C3F1FF0FC4F1FF0FC5F1FF0FC6F1FF0FC7F1FF0FC8F1FF0FC9F1FF0FCAF1FF0FCBF1FF0FCCF1FF0FCDF1FF0FC83500002CFF0B4028FF0B401CFF0B4020FF0B40B8
:40070000034B1868C0231B02184000D00120704700010B4010B500F0B5FC044A1368C02109020B43136000F0B1FC10BD00010B4010B500F0A7FC08490A68084B1A408024A1
:40074000E40122430A600A6813408022120213430B6000F09BFC10BD00010B40FF3FFFFF70B5050000F08EFC0400FFF7C9FF002803D0FFF7DDFF012100E00021084828409F
:40078000084A1568084B2B40184310601368012901D1FFF7BFFF200000F078FC70BDC0460404040010020B40FBFBFBFF10B5244B1B685B0715D5234B1B685B070ED5224B00
:4007C000D969042001401F4C22688A432260DA698243DA611B69002B00D098470420FFF7BFFF174B1B685B0518D5164B1B685B0510D5154BD9698022D20011401148026810
:400800008A430260D969114A0A40DA615B69002B00D098478020C000FFF7A2FF084B1B685B030CD5074B1B685B0304D5064B9B69002B00D098478020C002FFF791FF10BDCD
:4008400010020B40DC00002064010020FFFBFFFF10B50B20FFF732FE10BDC04610B500F01DF810BD10B5044A1368802109060B431360FFF7EDFF10BD0000074010B5064B17
:400880001B78002B04D1FFF7E9FF0122024B1A70FFF7E8FF10BDC0468401002010B51B4A11680C230B4313600024194B1C60194A194B1A60194B1A4A13601A4A14601A4A29
:4008C00014601A4A13601A4B1C600B20FFF700FE03210B20FFF71AFE16490B20FFF704FE154B1C60154B1C60154B1C60154B1C60154B1C60154B1C601022154B1A70154B2A
:400900001C80154B1C60154B1C6010BD7000074000000740770800806000074007010080000307400403074010030740000207400402074095100000C80E0740880E074043
:40094000480F0740080F0740C80F0740880F07409C010020AC010020A8010020B001002010B5144A13685B005B081360002312490B6012490B6012480468124921400160FA
:4009800011490B6011490B601149124B19601249124B19601249134B19601349134B19601021134B19701368802109060B43136010BDC04600000740680007406C00074067
:4009C00060000740FF5CFFFF880F0740C80F0740F3070000800F0740ED0F0000C00F0740FF0F0000400F074017030000000F07409C010020014B18687047C046B0010020EE
:400A000010B50B20FFF764FD074B1C88A2B21400064B1B789B0602D504231A4394B20B20FFF74CFD200010BDAC0100209C01002010B50B20FFF74CFD044B1C88A4B2002270
:400A40001A800B20FFF73AFD200010BDAC01002070B52B4B1B6820251D402A4C03E00120FFF792FD013C00F0E5FA002801D1002CF5D1002C43D0002000F0E4FA224A1368FF
:400A80000F218B431360214A13685B005B081360002D18D0002000F0D5FA0A20FFF774FD012000F0CFFA0A20FFF76EFD154C03E00120FFF769FD013C00F0D0FA002803D110
:400AC000002CF5D100E00F4C002C08D0002000F0B9FA0A20FFF758FD01220D4B1A600B4A1368802109060B43136007490B680F229343013A13430B60012000F0A3FA70BDB6
:400B000064000740204E00000C0001400000074068000740F0B583B001900C0017001D00002917D02A4B1B78102B08D10B20FFF7CFFC284B1B68DB070ED508260FE0244B51
:400B40001B78602B0AD1244A138808218B431380002604E0042602E0002600E00426002E2FD128221A4B1A7000231C4A13601C4A13601C4B1F601C4B1C60EAB21B4B1A7012
:400B8000019B5C00FF231C40134A138802218B4313804023164A13601649174A11601421FF31164A1160164A1360EB0704D5FFF74FFF144B1C6004E0124B1C600222124BAB
:400BC0001A600B20FFF77AFC300003B0F0BDC0469C01002064000740AC010020B8010020B0010020C0010020A4010020B4010020800F074017030000000F0740080F074050
:400C0000880F07404002074068000740F0B583B001900C0017001D00002917D02F4B1B78102B08D10B20FFF753FC2D4B1B68DB070ED508260FE0294B1B78602B0AD1294A97
:400C4000138808218B431380002604E0042602E0002600E00426002E39D129221F4B1A700022214B1A60214A1760214B1C60EBB220490B70019B5C00FF231C400120044361
:400C800018490B8883430B801B491C4B19601421FF311B4B19601368072B03D80422194B1A6008E0184A1368802149000B4313600822144B1A60EB0704D5FFF7C9FE134B82
:400CC0001C6004E0114B1C600222114B1A600B20FFF7F4FB300003B0F0BDC0469C01002064000740AC010020A8010020BC010020A0010020B401002017030000000F07403B
:400D0000080F0740C80F074060000740400207406800074010B500F06FF810BD10B500F01DF810BD10B5044A1368802109060B431360FFF7EFFF10BD0000064010B5064BCC
:400D40001B78002B04D1FFF7E9FF0122024B1A70FFF7E8FF10BDC0468C010020134A144B1A600023134A13601349144A1160144A14490A6007201449086014490B60063840
:400D80001349086013490A60134A1360134A1360134A1360134A1360134A1360134A1360134A13601268134B1A8070470B000002000006404000064001000A00480006405E
:400DC00007000080000306400403064010030640440006400002064004020640880E0640C80E0640480F0640080F0640C80F0640880F06408E01002005490B68F02293431B
:400E0000603A13430B60034B1A88034B1A607047100001408E010020880F064070B50500002402E000F0D4FA0134285D0028F9D170BDC046034A1068202318401060400925
:400E4000C0B27047100104400004000C014B18607047C04648010540024B18680004000C7047C046480105400004000C014B18607047C0465401054070B504000D0000F05C
:400E800001F9AC40024B1C6000F000F970BDC0460800054010B500F0F5F8064A116802230B43136000F0F2F818210220FFF7E4FF10BDC04600000540014B18607047C04622
:400EC0007801054010B580229204074B1A600C22064B1A600220FFF7EFFF0548FFF7C4FF0020FFF7B1FF10BD4001054064010540FFFF000010B5064B1B78002B04D1FFF706
:400F0000E1FF0122024B1A70FFF7C4FF10BDC04690010020014B58647047C0460000002010B5040000F0AEF8044A1168044B0B40A4031C43146000F0A9F810BD00E400E059
:400F4000FF3FFFFF0222014B1A60704700E100E00222014B1A60704780E100E010B50400FFF7F6FF2000FFF7D5FF0320FFF7D8FFFFF7E8FF10BDC0460004000C014B1860DF
:400F80007047C046080105400004000C014B18607047C0461401054070B504000D0000F071F8AC40024B1C6000F070F870BDC0460800054010B500F065F8064A1168012320
:400FC0000B43136000F062F818210120FFF7E4FF10BDC04600000540014B18607047C0463801054010B580229204074B1A600C22064B1A600120FFF7EFFF0548FFF7C4FFCF
:401000000020FFF7B9FF10BD0001054024010540E703000010B5064B1B78002B04D1FFF7E1FF0122024B1A70FFF7C4FF10BDC04691010020024B186840080123184070477C
:4010400004030440044A1368DBB201218B430840184310607047C04600030440024B1B68012018407047C04604030440000000000230800804D0C0460138FDD1C046C046D0
:40108000C0467047EFF3108072B6704780F310887047C04610B5AD4B1B68002B00D09847AB4B1B68DB0702D50022AA4B1A60AA4B1B789B0628D5A94B1B68DB0507D5A84A32
:4010C0001188C0239B000B431380012300E00023A24A1268D20706D5A14A118890239B000B4313800123002B0FD09B4A1278D20701D5012200E002229949088802430A8050
:401100000021954A117000E00023934A1278920600D414E1914A1268D20611D51022914B1A608D4B1B78DB0701D5012300E002238B4A11880B4313801022874B1A7004E1BA
:40114000854A1278120720D5844A126892070AD50222844B1A60824A118888239B000B431380012311E07C4A1278D20703D52521794A117009E02421774A11707A4A126801
:40118000002A02D01439794A1160734A1278520700D4ABE0704A1278D20749D5744A1268120727D5734A1268734909680F240C40724909686418141B082C09D8002C16D149
:4011C0006F4A11686F4B0B401360012308340EE008240CE0694A11686B48006841186B480068C0B20870116801311160013C002CF0D119E05E4A1268520715D55F4A116874
:4012000061480068411861480068C0B208701168013111601168574A1268914203D204215B4A116000E001235A495B4A11605DE04A4A1268920726D502224A4B1A60574947
:401240000B680D321A40096880231B020B4000D001239B18524A1168CB1A13601268514B1A603F4A118884239B000B4313804E4B1A68802149020A431A6019684B4A0A40CF
:401280001A60012332E04A4A1268D20612D424E0434A1168344A1268914211D2404A11684448006841180978C9B243480160116801311160394A12680F210A40082AE7D145
:4012C000374A1168284A1268914202D14021274A11603A493A4A116008E0354A1268520604D52F4B1A682F4B1A600123002B2CD0234A1168234B0B4013600023314A136037
:401300001A4A1360304B1B789B070ED5124B1B78DB0701D5092300E00A23114A11880B43138060220C4B1A700FE0284B1B689B0601D5182200E01022154B1A6005E0064B72
:401340001B78DB0601D4FFF70BFB10BD880100208C0E0740880E07409C0100200C0F0740AC010020000F0740C0010020880F0740CC0F0740BC01002008030740A8010020D9
:4013800060000740FFFEFFFFA00100204003074068000740ED0F0000C00F074008020740B8010020B001002004020740FFFFFEFF8C0F0740A401002040020740F307000012
:4013C000800F0740C80F0740B401002064000740044B1B680F221340082BF9D0024B18607047C0460802064040020640002243088B4274D303098B425FD3030A8B4244D350
:40140000030B8B4228D3030C8B420DD3FF22090212BA030C8B4202D31212090265D0030B8B4219D300E0090AC30B8B4201D3CB03C01A5241830B8B4201D38B03C01A52417F
:40144000430B8B4201D34B03C01A5241030B8B4201D30B03C01A5241C30A8B4201D3CB02C01A5241830A8B4201D38B02C01A5241430A8B4201D34B02C01A5241030A8B4246
:4014800001D30B02C01A5241CDD2C3098B4201D3CB01C01A524183098B4201D38B01C01A524143098B4201D34B01C01A524103098B4201D30B01C01A5241C3088B4201D33B
:4014C000CB00C01A524183088B4201D38B00C01A524143088B4201D34B00C01A5241411A00D20146524110467047FFE701B5002000F006F802BDC0460029F7D076E7704765
:401500007047C0468446081C6146FFE71FB500F0D1F9002801D40021C8421FBD10B500F05DF94042013010BD10B500F0C3F9002801DB002010BD012010BDC04610B500F04B
:40154000B9F9002801DD002010BD012010BDC04610B500F06BF9002801DC002010BD012010BDC04610B500F061F9002801DA002010BD012010BDC0469E2110B5C905041C6E
:40158000FFF7F0FF002803D1201C00F071FC10BD9E21201CC90500F0E5FA00F069FC80231B069C466044F2E7F0B5564644465F464D46F0B444024600C70F83B08846650A5B
:4015C000360EBA463DD0FF2E22D00023EC00802599469B46ED0425437F3E43465C025800DB0F640A000E984636D0FF2830D080230021E400DB041C437F38301A019048463B
:4016000042460843724E800030587A4013008746002D44D108239946063B9B46DDE70122FF2000241A406402C305640AD2071C431443200003B03CBC90469946A246AB46FF
:40164000F0BD002D20D104239946033B9B46C4E7002C17D1022102E0002C0AD10121321A01924A4643460A435A48920082587B409746200001F00AFB431F76309C40404226
:401680000021BAE70321B8E7280001F0FFFA431F9D4000237630464299469B469DE70C239946093B9B4698E780240022E403FF20B9E70024C2468B465A465346022AAED0C1
:4016C000032A7DD0012A31D1012200201A400024A9E70122101A1B2856DD1A4000200024A1E78023DB031D424BD18023DB032B435C02640A3A00FF2095E76D0160018542E7
:4017000030D2019A0024013A01921B220127290064006D00002901DBA84201D82D1A3C43013A002AF3D16A1E95412C4301987F300028CEDD620704D00F222240042A00D04E
:401740000434220103D5244A019814408030FE2800DD64E70122A401640AC0B21A4062E72C00A9E72D1A1A220124CFE76B02BCD500248023DB031C436402640A4246FF20FB
:4017800051E71C42B3D1F4E721002022C140101A8440621E94410C43620704D00F222240042A00D00434620104D5012201201A40002438E70122A401640A1A40002032E752
:4017C0008023DB031C436402640A5246FF202AE7F835000038360000FFFFFFF7430270B542004C005D0AC30F4802120E460A240EC90FFF2A0FD0FF2C11D00120A24200D000
:4018000070BDB542FCD18B420DD0002AF8D12800431E9841F4E70120002DF1D1EBE70120002EEDD1E9E70020EAE7C0464302F0B542005D0AC30F4802440A4800120E000EB4
:40184000C90FFF2A1FD0FF2822D0002A09D16E426E4100280FD1002C0DD10020002D09D005E0002801D1002C01D08B4213D0584201231843F0BD002EF7D048424141012050
:4018800049420843F6E7002DDDD002204042F1E7002CDAD0F9E78242E9DC04DBA542E6D80020A542E6D25842434101205B421843E0E7C0464302F0B542004C005E0AC30FE7
:4018C0004802120E450A240EC90FFF2A17D0FF2C19D0002A0BD170427041002C17D0002807D048424141012049420843F0BD002C13D08B4214D0584201231843F6E70220FE
:40190000002EF3D1E3E70220002DEFD1E1E7002DE5D10020002EE9D0EDE7002DE9D1EAE7A242E8DC04DBAE42E5D80020AE42DDD25842434101205B421843D7E7F0B5574674
:401940004E4645464300E0B446028846760A1F0EC40F002F47D0FF2F25D0002380259A469946F600ED042E437F3F434642465D02D20F5B006D0A1B0E904640D0FF2B39D070
:4019800080220020ED00D20415437F3BFB1842465746591C62408C4607430F2F5CD86F49BF00C9598F46002E45D108239A46063B9946DAE7424602282DD0032800D1C3E0C7
:4019C000012800D0A2E0002500260240D4B27602ED05760A2E43E407264330001CBC90469946A246F0BD002E1AD104239A46033B9946BAE72A00511E8A41901CC6E701209C
:401A0000002DC3D0280001F041F9431F76309D4043420020BAE70124FF2514400026D6E7300001F033F9431F9E400023763047429A46994699E70C239A46093B994694E71D
:401A400080260024F603FF25C1E735004846B2E7350022004846AEE72904090C0800370C3604360C2C0C7943704367437443060C64183619B14203D98021490288464744FF
:401A80000004000C310409188D01681E8541890E2943350CED19AD010D43290104D5012369081D4063460D4319007F31002925DD680704D00F202840042800D00435280184
:401AC00003D5274980330D401900FE29A3DC0124AD016E0A1440CDB279E78020C003064207D0054205D128434602760A4446FF256DE706437602760AFF2568E70124611A39
:401B00001B2905DD14400025002660E76346CBE72E002023CE40591A8D406B1E9D412E43730704D00F233340042B00D00436730104D5012401251440002648E70124B6015E
:401B4000760A1440002542E780260124F6032E437602760A1440FF2539E7C04678360000FFFFFFF7F8B54A024E0043024400240EC50F9B09360EC90F9209FF2E00D183E044
:401B800001204140A01BA9425CD0002800DC95E0002E1CD1002A00D081E05A0704D00F221A40042A00D004335A013BD50134FF2C00D191E001209B015B0AE4B205405B0266
:401BC000E4055B0AED0723432B431800F8BDFF2CE3D08021C9040A431B2800DD90E016002021C640081A8240511E8A4132439B1A5A0115D59B019E09300001F047F805380F
:401C0000864084426CDC041B330020200134E340041BA640721E964100243343BDE70D005A07BCD1DF0801231D40FF2C33D1002F00D190E08022D20313003B435B025B0A70
:401C4000FF24BCE700284FDD002E2ED0FF2CA4D08025ED042A431B2800DD97E016002025C640281A8240501E824132439B185A01D5D50134FF2C6DD001227B481A405B08E2
:401C8000034013430D0088E7002A00D07AE777E7031EC5D100257B025B0AE4B28FE701380028A4D0FF2C97D177E7002A00D174E701380028DAD0FF2CCDD16EE7002821D12D
:401CC000601CC0B2012858DD80279E1AFF0437402FD0D61A0D008FE701231D4000236EE7624B241A334058E7002851D1601CC6B2012E33DDFF282DD09B185B0804004CE7C9
:401D0000012274E7002C1AD0FF2E1FD08024E404404223431B2800DD96E01D002024C540201A8340581E83412B43D31A34000D005EE7002E00D05FE700250024ABE7002B21
:401D400044D0C0430028F0D0FF2EE3D11300FF240D0022E70D00FF24002330E7002C5DD1002B7DD0002A00D117E79B185A0100D456E73E4A040013400FE7002C1ED1002BC8
:401D80002FD1002A65D013000D0006E701226DE7002C1FD1002B59D0C04300280BD0FF2E4FD01B285EDC1D002024C540201A8340581E83412B439B18340058E7002B1CD1B8
:401DC000002A49D013000D00FF24E6E6130034000D00E2E6FF2E34D08024E40440422343DFE7002A00D1D8E68027981AFF04074000D14DE7D31A0D00CFE6FF24002A00D1DC
:401E0000CBE68020DB08C003034204D0D208024201D113000D00DB00FF24BEE6002B10D0FF24002A00D1B8E68020DB08C003034203D0D208024200D11300DB000D00FF24AE
:401E4000ABE61300FF24A8E601236EE713003400A3E6002700251EE780270025FF03E9E613009AE60123A6E7FFFFFF7DFFFFFFFB4302590A4300C20F1B0E00207E2B0EDD87
:401E80009D2B0DDC802000040143952B0BDC9620C31AD9400B005842002A00D118007047034BD018FBE7963B99400B00F3E7C046FFFFFF7F70B5041E28D000F0E7FE9E23C9
:401EC0001B1A962B0ADC9622D21A94406202520AD8B25202520AC005104370BD992B18DC9922D21A9440114A2240610704D00F210C40042C00D00432510103D50B4B1A4097
:401F00009F231B1A9201520AD8B2E2E700200022DFE705222500121AB921D5402200C91A8A40541EA2412C001443DCE7FFFFFFFBF0B55F4656464D464446F0B40D03994601
:401F40004E002B0B87B00700924680469B46760DCC0F002E69D06D4B9E4235D05B468022DD001204430F13432B439B46C3009846674B00279C460023664401934A4615032C
:401F80005000D20F53462D0B400D914600D176E05E4A90426CD080225B0F120413435C4AED0094461D4353460022DB00604449463618701C6140029017430F2F00D9AFE003
:401FC0005448BF00C759BF465B461F4300D088E000239B469846023308270193CEE74946022A6AD0032A00D109E2012A00D0BBE111400022002300259046CCB200212D03C2
:402000000A0D12052D0B1543434A1B0515401D436D00E4076D0825434046290007B03CBC90469946A246AB46F0BD034352D05B46002B00D18AE1584600F028FE03000B3B45
:402040001C2B00DD7BE11D22D31A3A0001005D46DA4008398D4013008F402B439B46B8462E4B00279C46002360444642019385E752462A432CD100250023022297E752462A
:402080002A4321D0002D00D154E1280000F0FEFD03000B3B1C2B00DD46E11D21CB1A51460200D9405346083A954093400D431B4A944660444042002279E7012400220C40C6
:4020C000124B0025904699E70025002301226EE703226CE700239B4698460133042701934CE703230C27019348E700238025984600242D03054B81E75D464346019A6FE7DD
:402100005D4643462100019A6AE7C046FF07000001FCFFFFB8360000FFFF0F80F30300004246120C91461A0C9446424617044A461B041B0C5A43604690464A4642431000BA
:40214000039262461C003F0C7A437C4342440192220C9246019A5244904506D98246802040028046C24450460390100C049048462404240C1204121905922A0C2D042D0C8E
:4021800068432C00824648467C4350438146200C8046574357444744BA4503D9802040028046C144380C3F04B84648442404240C01900498A044404404905846000C81469C
:4021C00058460404200C8246070048465F434C464343604660436446834650464443380C8446E4186444A34203D980235B029C46E34448463F04230C3F0C2404E419574694
:4022000068436F4384464D46504655434243380C814662444A445B44944503D9802040028446654403983F04834604983F0C8446E344C34580414042824610048446019840
:40224000674484466744A344BC46A345A4419946D44464428742BF41D4458041E144A04699459B417F424042C8440743120CBA18A045A4415F423B0064422343D7184346D0
:402280007D19DB0D6D021D435B465A02059B1A43531E9A415B46DB0D1A4343465B021343EA0107D501225C0813402343EA07029E13436D08574AB218002A4BDD580709D011
:4022C0000F201840042805D0181D98429B415B42ED180300E80104D54F4A15408022D200B2184E48824200DDE7E60124DB08680718436D02530580462D0B5B0D0C407DE626
:40230000802259461203114208D0154206D115432D0398462D0B4C46414B6FE65D4615432D032D0B3E4B69E603005546283B9D400023BCE6504600F0A9FC2030A8E60300F3
:40234000283B9F400023BB46984689E600F09EFC203073E60124A61A382E07DD00220C4000230025904649E6029EA3E71F2E20DC20222C001800921BF040944093400443C9
:40238000581E83411C43F540630709D00F232340042B05D023001C1D9C4292415242AD182B021FD5012400220C4001230025904624E61F202C004042821AD440202E1CD059
:4023C0004022961BB5402B43581E83410720234318400025002809D00F2200251A401C00042AD8D1230068076D022D0B0124DB08034398460C40002300E60025E3E7802234
:402400000124120315432D0398462D0B0C40044BF4E5C046FF030000FFFFFFFEFE070000FF070000F0B557464E464546E0B40E001100F20F9246C500420F18033703740076
:40244000400A4E0F7F0A3043CF4E17435A00640D520DDB0FC900B24200D1E5E001267340A61AB446534500D1AFE0002E00DC0DE1002A3AD103000B4300D0E4E06B0709D0F2
:402480000F232B40042B05D02B1DAB42AD416D427F191D003B0200D488E0BB4B01349C4200D110E13A00B94B51461A4001235007ED08520264050543120B640D0B40002102
:4024C000280012030D0D120B64052D0515436208AF4CDB072C401443640064081C4321001CBC90469946A246F0BDA74B9C42C5D080231B0418436346382B00DDFDE01F2B67
:4025000000DD30E1624620239B1A02009A40664690460A009940F24046464B1E99413243114363460200DA40691A8D429B410D00BA1A5B42D71A3B0235D57A02530A9846A2
:402540004346002B00D1C4E0404600F09FFB0300083B1F2B00DDC5E020222900D21A4746D1409F400A009D403A439C4200DDC0E01C1B631C1F2B00DDE4E02021140028005F
:40258000C91AD8408C408D400443DA40681E854117002543002471E7424663461A4300D14CE2674645466B0700D069E7012351467807ED08FA080B40054373498C4238D032
:4025C00012036405120B640D79E7002E00DC9AE0002A47D06C4A944200D14FE78022120410436246382A00DC08E10143481E81410022C9B24919D219A942BF410D007F422E
:40260000BF183A0200D442E15F4A0134944200D14EE101205D4A69083A4028400843D507054357089A4629E706000E4300D017E714E72900114300D1F9E1802109030A43C1
:402640001203120B3BE701235B429846C4446346002B72D1691A8D429B413F1A5B42FF1A0D0068E702000A4300D107E7012252429046C4446246002A00D0E6E06918A94238
:40268000B6413F187642F7190D00BAE7002E00D080E0621C5205520D012A00DCF9E06A1A91464D45B6413A1A7642921B9046120200D499E04D1BA9428941C71B49427A1AF2
:4026C00090469A463CE752460123002513400022F5E6280000F0DAFA20300300083B1F2B00DC39E72A002838824000259C4200DC3EE7264FE41A1740C0E60143481E8141DC
:402700000022C9B210E7002E00D0F1E0621C94465205520D012A00DCA0E01B4A944500D1C5E06918A94292413F185242D2194908D5070D4357086446A0E6134B9C4200D0C0
:40274000D9E69BE611001F3CE1400C00202B00D180E04021CB1A9A4015436A1E95410027254300241FE763460200203BDA406346202B71D0402366469B1B98400143481ED9
:40278000814111430022CFE6FF070000FFFF7FFFFFFF0F80002C48D0CA4CA24200D1A2E07442A1468024240427434C46382C00DDDBE01F2C00DD44E14E462024A41B3E0009
:4027C000A640A246B0464C462E00E640B4464646644626435446A5406C1EA54134002C434D46EF400D1B28E04A4643464D461A4300D0A5E6002300240025DEE61F2A5ADCFF
:4028000066462022921B060096409146B04662460E00D640424616434A4691404A1E9141020060463143C240E4E63C002C435AD0F443A146002C52D14D1BA9428941C71BE3
:4028400049427F1A14009A4675E69E4A944200D0C7E613E600227FE700208FE7002C00D0C8E03B002B4300D10FE103000B4300D104E66918A9429B413F185B42DF193B0208
:4028800000D41AE1904B0D001F406446F6E59A4689E63A002A43002C5CD1002A75D102000A4300D1CAE007000D009A46E6E564460022002581E662460600203AD640624617
:4028C000B046202A00D1B7E040226646921B904001434246481E8141114300228AE6794CA24200D061E707000D0014009A46C5E5002C41D13C002C4378D0F443A146002CDD
:4029000020D0704CA24271D04C46382C00DDB2E01F2C00DDBCE02026341BA2463C005646B4404E46A0462C00F440A446444666463443A4465446A54064466E1EB5412543E6
:402940004C46E7406D188D4289413F184942CF19140056E6002A2FD102000A4300D184E007000D009A46574C88E53D436F1EBD41ECB200270D1B60E7524CA24236D0744237
:4029800080263604A1463743BEE702000A4300D174E56A1A90464545B6413A1A7642921B9446120200D4F7E54D1BA9428941C71B49427F1A9A4661E502000A433AD0ED08EF
:4029C0007C072C438025FA082D032A4208D0C7082F4205D145072C003A009A46C9080C43670FD200E5001743364C47E507000D00140043E53A002A4343D002000A4319D08B
:402A0000ED087C072C438025FA082D032A4207D0C6082E4204D147073C003200C9080C43D700620FE50017439A46264C26E50022002544E5234C21E5002049E70023002545
:402A4000BBE54C463E00203CE6404C46B446202C31D040244E46A61BB7403D436C1EA54164462C4300270D1BE7E6802200231203144C0025A1E53D436F1EBD410027EDB200
:402A800060E707000D000F4CF8E407000D00F5E44E463C00203EF440A0464C46202C0ED040244E46A41BA7403D436F1EBD4144460027254346E70027CFE70D0073E500273B
:402AC000F2E7C046FF070000FFFF7FFF4200120E511C4302C9B270B55D0AC40F012915DDE02189008C466D071B0B6244002128000D0D2D052B431C4D52052B4052081343F1
:402B00005B00E4075B082343190070BD002A15D1002D1FD0280000F0B9F80A281DDC0B232A001B1ADA4013000200153295400F4A1B03121A52051B0B520DD7E7002D06D008
:402B400080221B0B120313436D07094ACEE7084A0023CBE700220023C8E703000B3B9D402B000025E3E7C046FFFF0F8089030000FF0700004B0070B55E0D0C03751C640A3D
:402B8000420F6D052243C90FC4006D0D012D2ADD3B4BF318FE2B1ADC002B42DD8001451EA841D2001043620F0243500704D00F201040042800D004328020C004104021D07F
:402BC0000133FF2B03D09201520ADBB201E0FF2300225202520ADB0513435B00C9075B080B43180070BD002E07D01443EFD08020D20080040243FF23D7E722430023002A14
:402C000003D00522D208FF2B03D05202520ADBB2DFE7002A32D08020C00302435202520AD7E71800173014DB8020000402431E20C01A1F280FDC2500124BF3189D406E1E07
:402C4000B5419A402B0013432200C2401A430023ABE70023D5E702256D42EB1A1500DD40202809D0084BF3189A401443621E9441220000232A4398E70022F6E70022A8E7FB
:402C800080FCFFFF82FCFFFFA2FCFFFF1C2101231B04984201D3000C10391B0A984201D3000A08391B09984201D30009043902A2105C40187047C046040302020101010195
:402CC0000000000000000000014B18687047C046400100200E4B70B500251E000D4CE41AA410A54204D0AB00F35898470135F8E700F01EFD084B00251E00084CE41AA410D2
:402D0000A54204D0AB00F35898470135F8E770BD3C3700003C3700003C3700004437000003008218934202D019700133FAE770470EB410B59DB002A9029008610B488224E1
:402D400088604861012040421FABC881084804CBA400006801938C8100F06EF80023029A13701DB010BC08BC03B01847FFFFFF7F40010020F0B58E6885B007000C000392E4
:402D800001939E4243D890238A89DB001A423ED003250969236801985B1A029363695D43EB0F5D19029B6D1001331B18AB4200D91D00530510D52900380000F041FB061E83
:402DC00014D0029A216900F0D0FAA289194B134080221343A38112E02A00380000F090FB061E0CD12169380000F0DEFA0C23402201203B60A38940421343A38117E0029BAE
:402E00002661F61826606561019EED1AA560019BB34200D21E0032000399206800F0AEFA0020A3689B1BA36023689E19266005B0F0BDC0467FFBFFFFF0B59FB002900593ED
:402E40008B890F0016001B0610D50B69002B0DD1402100F0F5FA38603861002804D10C23029A01381360D8E040237B61002306AD6B6120336B761033AB7634002378002B86
:402E800003D1A31B049312D003E0252BF9D00134F4E7A31B320039000298FFF76BFF431C00D1B4E06A69049B944663446B612378002B00D1ABE00122002352426A6002A9E4
:402EC0005432521801342B60EB60AB601370AB65534E21780522300000F03CFA002807D00123801B83402A68013413432B60EFE72B68DA0604D55322202102A8121811702C
:402F00001A0704D553222B2102A81218117022782A2A03D0099B00200A210EE0059A111D12680591002A01DB099204E05242EA60022213432B6001340BE02278303A092A47
:402F400004D84B4301349B180120F6E7002800D0099323782E2B1ED163782A2B0AD1059B02341A1D1B680592002B01DA01235B42079310E000230A201A0001346B60217807
:402F80003039092904D84243013452180123F6E7002B00D00792234E21780322300000F0D9F9002806D04023801B83402A68013413432B60217806221B48661C297600F024
:402FC000C9F9002812D0194B002B06D10722059B073393430833059314E005AB00933A00134B2900029800E000BF07E005AB00933A000F4B2900029800F08AF80390039B9E
:40300000013304D06B69039A9B186B6135E7BB890B985B0601D5012040421FB0F0BDC046FA360000003700000437000000000000752D0000F7B5170001938A680B690090A8
:403040000C00934200DA130022003B6043321278002A01D001333B6023689B0602D53B6802333B60062523681D401ED0230043331B785A1E9341226892061CD53020E118B1
:403080004331087021005A1C45310978A2184332023311700FE022000123193201990098089EB047431C0ED00135E3683A689B1A9D42F0DBDAE72200019943320098089D74
:4030C000A847431C02D10120404220E006232068E1683A6803400025042B03D18D1AEB43DB171D40A3682269934201DD9B1AED180027BD420AD0220001231A32019900981A
:40310000089EB047431CDED00137F2E70020FEBDF0B58BB006920A0043320793059004920A7E0C00109B6E2A00D1ABE011D8632A22D009D8002A00D1B5E0582A00D0C5E03A
:4031400045310A70814A4FE0642A1DD0692A1BD0BCE0732A00D1AAE009D86F2A29D0702A00D0B3E0202209680A43226037E0752A1FD0782A33D0A9E00E001A684236111DDD
:40318000196013683370A4E021681A68080606D4490604D5111D19600023D55E02E0111D19601568002D3BDA2D23049A6D42137036E021681A68080606D4490604D51568C6
:4031C000111D1960ADB202E0111D196015685F4B227E039308276F2A1DD00A271BE022007821453211705A4A19680392081D226818600D68100602D4500600D5ADB2D307A9
:4032000002D520231A4322601027002D03D1202322689A4322602300002243331A7002E00A274A4B03936368A360002B09DB0422216891432160002D05D1049E002B11D01C
:403240007BE0002D79D0049E28003900FEF754F9039B013E5B5C280033703900FEF7C6F8051EF1D1082F09D12368DB0706D563682269934202DC3023013E3370049B9B1B1C
:4032800023612BE009681A68080607D4490605D5111D19601368A28A1A8004E0111D1960136862691A600023049E236116E01A68111D1960166800216268300000F04AF814
:4032C000002801D0801B6060636803E0260042363270012323610023049A1370079B09AA00932100069B0598FFF7A4FE431C02D10120404227E02369320006990598079D47
:40330000A847431CF4D0236800259B070FD4099BE068984217DA180015E022000123193206990598079EB047431CE1D00135E368099A9B1A9D42F0DBE9E72600039B42367A
:403340001B7833708EE70BB0F0BDC0460B3700001C370000C9B28218904204D003788B4202D00130F8E700207047002310B59A4203D0CC5CC4540133F9E710BD10B588429C
:4033800002D98B18984201D3002305E09B1A013A08D3995C8154FAE7934203D0CC5CC4540133F9E710BD000070B50500002944D00C1F2368002B00DAE418280000F0D8F894
:4033C0001E4A13681100002B02D16360146031E0A3420DD92268A018834203D118685B688218226063600C6024E0A24203D813005A68002AF9D11E689819A0420BD1216855
:40340000711858181960824214D110685268411819605A600EE0A04202D90C232B6009E021686018824203D1106852684118216062605C60280000F09CF870BD98010020B0
:40344000032370B5CD1C9D43083506000C2D01D20C2501E0002D01DBA94202D90C23336048E0300000F084F8234B1C681A002100002913D00B685B1B0DD40B2B02D90B6003
:40348000CC181EE08C4202D1636813601AE04B6863600C0016E00C004968E9E7174C2368002B03D1300000F051F820602900300000F04CF8431C18D00323C41C9C43A042DB
:4034C0000DD12560300000F054F8200007220B30231D9043C31A0ED05A42E2500BE0211A300000F033F8431CEBD10C233000336000F03FF8002070BD98010020940100207D
:40350000F8B506000C001500002904D11100FFF797FF040018E0002A03D1FFF745FF2C0012E000F027F885420ED929003000FFF787FF071E07D021002A00FFF716FF2100C5
:403540003000FFF731FF3C002000F8BD002370B5064C050008002360FCF754FF431C03D12368002B00D02B6070BDC046C4010020704770470B1F1A68101F002A04DA891826
:4035800004390B68D0180438704700000000000054656D70657261747572653A2025642C2048756D69646974793A2025640A000072706D3A2025640A0000000000300F40CE
:4035C000000400400F400004030405060708090A0B0C0E0F101112131415161718191B1C1D1E1F2021222325262728292A2B2E2F3031323334350000FA1600001E16000000
:40360000DC160000B4160000DC160000A8160000DC160000B41600001E1600001E160000A8160000B4160000601700006017000060170000E21600001E1600001E160000AD
:40364000C8160000B2160000C8160000A8160000C8160000B21600001E1600001E160000A8160000B21600006017000060170000601700006C170000581A0000B61900004B
:40368000B6190000B41900004A1A00004A1A0000401A0000B41900004A1A0000401A00004A1A0000B4190000501A0000501A0000501A0000DA1A000020210000E01F00001E
:4036C000E01F0000DE1F0000F8200000F8200000EA200000DE1F0000F8200000EA200000F8200000DE1F0000002100000021000000210000002300004300232D302B2000CC
:40370000686C4C006566674546470030313233343536373839414243444546003031323334353637383961626364656600000000F8B5C046F8BC08BC9E467047B9010000E1
:403740007D040000F8B5C046F8BC08BC9E4670479101000068370000C000002088000000800000000000000000000000C8010020010000000000E02EC05D000018000000BC
:4037800000366E01040404000000000000000000000000000000000000000000000000000000000000000000F836000000000000000000000000000000000000000000002A
:4037C00000000000000000000000000000000000000000000000000000000000000000000000000000000000E00000200000000000000000000000000000000000000000C9
:403800000000000000000000000000000000000000000000000000000000000000000000000000000000000000000000000000000000000000000000000000000000000088
:403840000000000000000000000000000000000000000000000000000000000000000000000000000000000000000000000000000000000000000000000000000000000048
:403880000000000000000000000000000000000000000000000000000000000000000000000000000000000000000000000000000000000000000000000000000000000008
:4038C00000000000000000000000000000000000000000000000000000000000000000000000000000000000000000000000000000000000000000000000000000000000C8
:0200000490303A
:02000000E7F91E
:0200000490402A
:200000000000000000000000000000000000000000000000000000000000000000000000E0
:0200000490501A
:0C000000000204C81193110104D9F98C0E
:0200000490600A
:0100000001FE
:00000001FF